{
  "contractName": "Steinnegen",
  "abi": [
    {
      "inputs": [
        {
          "internalType": "contract Vault",
          "name": "_tokenContract",
          "type": "address"
        }
      ],
      "stateMutability": "nonpayable",
      "type": "constructor"
    },
    {
      "anonymous": false,
      "inputs": [
        {
          "indexed": true,
          "internalType": "address",
          "name": "owner",
          "type": "address"
        },
        {
          "indexed": true,
          "internalType": "address",
          "name": "spender",
          "type": "address"
        },
        {
          "indexed": false,
          "internalType": "uint256",
          "name": "value",
          "type": "uint256"
        }
      ],
      "name": "Approval",
      "type": "event"
    },
    {
      "anonymous": false,
      "inputs": [
        {
          "indexed": true,
          "internalType": "address",
          "name": "from",
          "type": "address"
        },
        {
          "indexed": true,
          "internalType": "address",
          "name": "to",
          "type": "address"
        },
        {
          "indexed": false,
          "internalType": "uint256",
          "name": "value",
          "type": "uint256"
        }
      ],
      "name": "Transfer",
      "type": "event"
    },
    {
      "anonymous": false,
      "inputs": [
        {
          "indexed": true,
          "internalType": "address",
          "name": "from",
          "type": "address"
        },
        {
          "indexed": true,
          "internalType": "contract Vault",
          "name": "tokenContract",
          "type": "address"
        },
        {
          "indexed": false,
          "internalType": "uint256",
          "name": "value",
          "type": "uint256"
        }
      ],
      "name": "TransferToVault",
      "type": "event"
    },
    {
      "inputs": [
        {
          "internalType": "address",
          "name": "owner",
          "type": "address"
        },
        {
          "internalType": "address",
          "name": "spender",
          "type": "address"
        }
      ],
      "name": "allowance",
      "outputs": [
        {
          "internalType": "uint256",
          "name": "",
          "type": "uint256"
        }
      ],
      "stateMutability": "view",
      "type": "function",
      "constant": true
    },
    {
      "inputs": [
        {
          "internalType": "address",
          "name": "spender",
          "type": "address"
        },
        {
          "internalType": "uint256",
          "name": "amount",
          "type": "uint256"
        }
      ],
      "name": "approve",
      "outputs": [
        {
          "internalType": "bool",
          "name": "",
          "type": "bool"
        }
      ],
      "stateMutability": "nonpayable",
      "type": "function"
    },
    {
      "inputs": [
        {
          "internalType": "address",
          "name": "account",
          "type": "address"
        }
      ],
      "name": "balanceOf",
      "outputs": [
        {
          "internalType": "uint256",
          "name": "",
          "type": "uint256"
        }
      ],
      "stateMutability": "view",
      "type": "function",
      "constant": true
    },
    {
      "inputs": [],
      "name": "decimals",
      "outputs": [
        {
          "internalType": "uint8",
          "name": "",
          "type": "uint8"
        }
      ],
      "stateMutability": "view",
      "type": "function",
      "constant": true
    },
    {
      "inputs": [
        {
          "internalType": "address",
          "name": "spender",
          "type": "address"
        },
        {
          "internalType": "uint256",
          "name": "subtractedValue",
          "type": "uint256"
        }
      ],
      "name": "decreaseAllowance",
      "outputs": [
        {
          "internalType": "bool",
          "name": "",
          "type": "bool"
        }
      ],
      "stateMutability": "nonpayable",
      "type": "function"
    },
    {
      "inputs": [
        {
          "internalType": "address",
          "name": "spender",
          "type": "address"
        },
        {
          "internalType": "uint256",
          "name": "addedValue",
          "type": "uint256"
        }
      ],
      "name": "increaseAllowance",
      "outputs": [
        {
          "internalType": "bool",
          "name": "",
          "type": "bool"
        }
      ],
      "stateMutability": "nonpayable",
      "type": "function"
    },
    {
      "inputs": [],
      "name": "name",
      "outputs": [
        {
          "internalType": "string",
          "name": "",
          "type": "string"
        }
      ],
      "stateMutability": "view",
      "type": "function",
      "constant": true
    },
    {
      "inputs": [],
      "name": "symbol",
      "outputs": [
        {
          "internalType": "string",
          "name": "",
          "type": "string"
        }
      ],
      "stateMutability": "view",
      "type": "function",
      "constant": true
    },
    {
      "inputs": [],
      "name": "tokenContract",
      "outputs": [
        {
          "internalType": "contract Vault",
          "name": "",
          "type": "address"
        }
      ],
      "stateMutability": "view",
      "type": "function",
      "constant": true
    },
    {
      "inputs": [],
      "name": "totalSupply",
      "outputs": [
        {
          "internalType": "uint256",
          "name": "",
          "type": "uint256"
        }
      ],
      "stateMutability": "view",
      "type": "function",
      "constant": true
    },
    {
      "inputs": [
        {
          "internalType": "address",
          "name": "to",
          "type": "address"
        },
        {
          "internalType": "uint256",
          "name": "amount",
          "type": "uint256"
        }
      ],
      "name": "transfer",
      "outputs": [
        {
          "internalType": "bool",
          "name": "",
          "type": "bool"
        }
      ],
      "stateMutability": "nonpayable",
      "type": "function"
    },
    {
      "inputs": [
        {
          "internalType": "address",
          "name": "from",
          "type": "address"
        },
        {
          "internalType": "address",
          "name": "to",
          "type": "address"
        },
        {
          "internalType": "uint256",
          "name": "amount",
          "type": "uint256"
        }
      ],
      "name": "transferFrom",
      "outputs": [
        {
          "internalType": "bool",
          "name": "",
          "type": "bool"
        }
      ],
      "stateMutability": "nonpayable",
      "type": "function"
    },
    {
      "inputs": [
        {
          "internalType": "uint256",
          "name": "_numberOfTokens",
          "type": "uint256"
        }
      ],
      "name": "send",
      "outputs": [],
      "stateMutability": "payable",
      "type": "function",
      "payable": true
    }
  ],
  "bytecode": "0x60806040523480156200001157600080fd5b5060405162002120380380620021208339818101604052810190620000379190620003ed565b6040518060400160405280600a81526020017f537465696e6e6567656e000000000000000000000000000000000000000000008152506040518060400160405280600581526020017f535445494e0000000000000000000000000000000000000000000000000000008152508160039080519060200190620000bb929190620002bf565b508060049080519060200190620000d4929190620002bf565b505050620000f4336a52b7d2dcc80cd2e40000006200013c60201b60201c565b80600560006101000a81548173ffffffffffffffffffffffffffffffffffffffff021916908373ffffffffffffffffffffffffffffffffffffffff16021790555050620005cb565b600073ffffffffffffffffffffffffffffffffffffffff168273ffffffffffffffffffffffffffffffffffffffff161415620001af576040517f08c379a0000000000000000000000000000000000000000000000000000000008152600401620001a69062000480565b60405180910390fd5b620001c360008383620002b560201b60201c565b8060026000828254620001d79190620004db565b92505081905550806000808473ffffffffffffffffffffffffffffffffffffffff1673ffffffffffffffffffffffffffffffffffffffff16815260200190815260200160002060008282546200022e9190620004db565b925050819055508173ffffffffffffffffffffffffffffffffffffffff16600073ffffffffffffffffffffffffffffffffffffffff167fddf252ad1be2c89b69c2b068fc378daa952ba7f163c4a11628f55a4df523b3ef8360405162000295919062000549565b60405180910390a3620002b160008383620002ba60201b60201c565b5050565b505050565b505050565b828054620002cd9062000595565b90600052602060002090601f016020900481019282620002f157600085556200033d565b82601f106200030c57805160ff19168380011785556200033d565b828001600101855582156200033d579182015b828111156200033c5782518255916020019190600101906200031f565b5b5090506200034c919062000350565b5090565b5b808211156200036b57600081600090555060010162000351565b5090565b600080fd5b600073ffffffffffffffffffffffffffffffffffffffff82169050919050565b6000620003a18262000374565b9050919050565b6000620003b58262000394565b9050919050565b620003c781620003a8565b8114620003d357600080fd5b50565b600081519050620003e781620003bc565b92915050565b6000602082840312156200040657620004056200036f565b5b60006200041684828501620003d6565b91505092915050565b600082825260208201905092915050565b7f45524332303a206d696e7420746f20746865207a65726f206164647265737300600082015250565b600062000468601f836200041f565b9150620004758262000430565b602082019050919050565b600060208201905081810360008301526200049b8162000459565b9050919050565b6000819050919050565b7f4e487b7100000000000000000000000000000000000000000000000000000000600052601160045260246000fd5b6000620004e882620004a2565b9150620004f583620004a2565b9250827fffffffffffffffffffffffffffffffffffffffffffffffffffffffffffffffff038211156200052d576200052c620004ac565b5b828201905092915050565b6200054381620004a2565b82525050565b600060208201905062000560600083018462000538565b92915050565b7f4e487b7100000000000000000000000000000000000000000000000000000000600052602260045260246000fd5b60006002820490506001821680620005ae57607f821691505b60208210811415620005c557620005c462000566565b5b50919050565b611b4580620005db6000396000f3fe6080604052600436106100c25760003560e01c806355a373d61161007f578063a457c2d711610059578063a457c2d714610292578063a52c101e146102cf578063a9059cbb146102eb578063dd62ed3e14610328576100c2565b806355a373d6146101ff57806370a082311461022a57806395d89b4114610267576100c2565b806306fdde03146100c7578063095ea7b3146100f257806318160ddd1461012f57806323b872dd1461015a578063313ce5671461019757806339509351146101c2575b600080fd5b3480156100d357600080fd5b506100dc610365565b6040516100e991906111a7565b60405180910390f35b3480156100fe57600080fd5b5061011960048036038101906101149190611262565b6103f7565b60405161012691906112bd565b60405180910390f35b34801561013b57600080fd5b5061014461041a565b60405161015191906112e7565b60405180910390f35b34801561016657600080fd5b50610181600480360381019061017c9190611302565b610424565b60405161018e91906112bd565b60405180910390f35b3480156101a357600080fd5b506101ac610453565b6040516101b99190611371565b60405180910390f35b3480156101ce57600080fd5b506101e960048036038101906101e49190611262565b61045c565b6040516101f691906112bd565b60405180910390f35b34801561020b57600080fd5b50610214610506565b60405161022191906113eb565b60405180910390f35b34801561023657600080fd5b50610251600480360381019061024c9190611406565b61052c565b60405161025e91906112e7565b60405180910390f35b34801561027357600080fd5b5061027c610574565b60405161028991906111a7565b60405180910390f35b34801561029e57600080fd5b506102b960048036038101906102b49190611262565b610606565b6040516102c691906112bd565b60405180910390f35b6102e960048036038101906102e49190611433565b6106f0565b005b3480156102f757600080fd5b50610312600480360381019061030d9190611262565b6109a3565b60405161031f91906112bd565b60405180910390f35b34801561033457600080fd5b5061034f600480360381019061034a9190611460565b6109c6565b60405161035c91906112e7565b60405180910390f35b606060038054610374906114cf565b80601f01602080910402602001604051908101604052809291908181526020018280546103a0906114cf565b80156103ed5780601f106103c2576101008083540402835291602001916103ed565b820191906000526020600020905b8154815290600101906020018083116103d057829003601f168201915b5050505050905090565b600080610402610a4d565b905061040f818585610a55565b600191505092915050565b6000600254905090565b60008061042f610a4d565b905061043c858285610c20565b610447858585610cac565b60019150509392505050565b60006012905090565b600080610467610a4d565b90506104fb818585600160008673ffffffffffffffffffffffffffffffffffffffff1673ffffffffffffffffffffffffffffffffffffffff16815260200190815260200160002060008973ffffffffffffffffffffffffffffffffffffffff1673ffffffffffffffffffffffffffffffffffffffff168152602001908152602001600020546104f69190611530565b610a55565b600191505092915050565b600560009054906101000a900473ffffffffffffffffffffffffffffffffffffffff1681565b60008060008373ffffffffffffffffffffffffffffffffffffffff1673ffffffffffffffffffffffffffffffffffffffff168152602001908152602001600020549050919050565b606060048054610583906114cf565b80601f01602080910402602001604051908101604052809291908181526020018280546105af906114cf565b80156105fc5780601f106105d1576101008083540402835291602001916105fc565b820191906000526020600020905b8154815290600101906020018083116105df57829003601f168201915b5050505050905090565b600080610611610a4d565b90506000600160008373ffffffffffffffffffffffffffffffffffffffff1673ffffffffffffffffffffffffffffffffffffffff16815260200190815260200160002060008673ffffffffffffffffffffffffffffffffffffffff1673ffffffffffffffffffffffffffffffffffffffff168152602001908152602001600020549050838110156106d7576040517f08c379a00000000000000000000000000000000000000000000000000000000081526004016106ce906115f8565b60405180910390fd5b6106e48286868403610a55565b60019250505092915050565b600073ffffffffffffffffffffffffffffffffffffffff163373ffffffffffffffffffffffffffffffffffffffff161415610760576040517f08c379a00000000000000000000000000000000000000000000000000000000081526004016107579061168a565b60405180910390fd5b600073ffffffffffffffffffffffffffffffffffffffff16600560009054906101000a900473ffffffffffffffffffffffffffffffffffffffff1673ffffffffffffffffffffffffffffffffffffffff1614156107f2576040517f08c379a00000000000000000000000000000000000000000000000000000000081526004016107e99061171c565b60405180910390fd5b61081f33600560009054906101000a900473ffffffffffffffffffffffffffffffffffffffff1683610f2d565b600061082a3361052c565b90508181101561086f576040517f08c379a0000000000000000000000000000000000000000000000000000000008152600401610866906117ae565b60405180910390fd5b600560009054906101000a900473ffffffffffffffffffffffffffffffffffffffff1673ffffffffffffffffffffffffffffffffffffffff166312514bba836040518263ffffffff1660e01b81526004016108ca91906112e7565b6020604051808303816000875af11580156108e9573d6000803e3d6000fd5b505050506040513d601f19601f8201168201806040525081019061090d91906117fa565b506109183383610f32565b600560009054906101000a900473ffffffffffffffffffffffffffffffffffffffff1673ffffffffffffffffffffffffffffffffffffffff163373ffffffffffffffffffffffffffffffffffffffff167f0e5a6a70f86bd855848884adc711a760ef3c31acdcd5fa61ab341349c7f2c8718460405161099791906112e7565b60405180910390a35050565b6000806109ae610a4d565b90506109bb818585610cac565b600191505092915050565b6000600160008473ffffffffffffffffffffffffffffffffffffffff1673ffffffffffffffffffffffffffffffffffffffff16815260200190815260200160002060008373ffffffffffffffffffffffffffffffffffffffff1673ffffffffffffffffffffffffffffffffffffffff16815260200190815260200160002054905092915050565b600033905090565b600073ffffffffffffffffffffffffffffffffffffffff168373ffffffffffffffffffffffffffffffffffffffff161415610ac5576040517f08c379a0000000000000000000000000000000000000000000000000000000008152600401610abc90611899565b60405180910390fd5b600073ffffffffffffffffffffffffffffffffffffffff168273ffffffffffffffffffffffffffffffffffffffff161415610b35576040517f08c379a0000000000000000000000000000000000000000000000000000000008152600401610b2c9061192b565b60405180910390fd5b80600160008573ffffffffffffffffffffffffffffffffffffffff1673ffffffffffffffffffffffffffffffffffffffff16815260200190815260200160002060008473ffffffffffffffffffffffffffffffffffffffff1673ffffffffffffffffffffffffffffffffffffffff168152602001908152602001600020819055508173ffffffffffffffffffffffffffffffffffffffff168373ffffffffffffffffffffffffffffffffffffffff167f8c5be1e5ebec7d5bd14f71427d1e84f3dd0314c0f7b2291e5b200ac8c7c3b92583604051610c1391906112e7565b60405180910390a3505050565b6000610c2c84846109c6565b90507fffffffffffffffffffffffffffffffffffffffffffffffffffffffffffffffff8114610ca65781811015610c98576040517f08c379a0000000000000000000000000000000000000000000000000000000008152600401610c8f90611997565b60405180910390fd5b610ca58484848403610a55565b5b50505050565b600073ffffffffffffffffffffffffffffffffffffffff168373ffffffffffffffffffffffffffffffffffffffff161415610d1c576040517f08c379a0000000000000000000000000000000000000000000000000000000008152600401610d139061168a565b60405180910390fd5b600073ffffffffffffffffffffffffffffffffffffffff168273ffffffffffffffffffffffffffffffffffffffff161415610d8c576040517f08c379a0000000000000000000000000000000000000000000000000000000008152600401610d839061171c565b60405180910390fd5b610d97838383610f2d565b60008060008573ffffffffffffffffffffffffffffffffffffffff1673ffffffffffffffffffffffffffffffffffffffff16815260200190815260200160002054905081811015610e1d576040517f08c379a0000000000000000000000000000000000000000000000000000000008152600401610e14906117ae565b60405180910390fd5b8181036000808673ffffffffffffffffffffffffffffffffffffffff1673ffffffffffffffffffffffffffffffffffffffff16815260200190815260200160002081905550816000808573ffffffffffffffffffffffffffffffffffffffff1673ffffffffffffffffffffffffffffffffffffffff1681526020019081526020016000206000828254610eb09190611530565b925050819055508273ffffffffffffffffffffffffffffffffffffffff168473ffffffffffffffffffffffffffffffffffffffff167fddf252ad1be2c89b69c2b068fc378daa952ba7f163c4a11628f55a4df523b3ef84604051610f1491906112e7565b60405180910390a3610f27848484611109565b50505050565b505050565b600073ffffffffffffffffffffffffffffffffffffffff168273ffffffffffffffffffffffffffffffffffffffff161415610fa2576040517f08c379a0000000000000000000000000000000000000000000000000000000008152600401610f9990611a29565b60405180910390fd5b610fae82600083610f2d565b60008060008473ffffffffffffffffffffffffffffffffffffffff1673ffffffffffffffffffffffffffffffffffffffff16815260200190815260200160002054905081811015611034576040517f08c379a000000000000000000000000000000000000000000000000000000000815260040161102b90611abb565b60405180910390fd5b8181036000808573ffffffffffffffffffffffffffffffffffffffff1673ffffffffffffffffffffffffffffffffffffffff16815260200190815260200160002081905550816002600082825461108b9190611adb565b92505081905550600073ffffffffffffffffffffffffffffffffffffffff168373ffffffffffffffffffffffffffffffffffffffff167fddf252ad1be2c89b69c2b068fc378daa952ba7f163c4a11628f55a4df523b3ef846040516110f091906112e7565b60405180910390a361110483600084611109565b505050565b505050565b600081519050919050565b600082825260208201905092915050565b60005b8381101561114857808201518184015260208101905061112d565b83811115611157576000848401525b50505050565b6000601f19601f8301169050919050565b60006111798261110e565b6111838185611119565b935061119381856020860161112a565b61119c8161115d565b840191505092915050565b600060208201905081810360008301526111c1818461116e565b905092915050565b600080fd5b600073ffffffffffffffffffffffffffffffffffffffff82169050919050565b60006111f9826111ce565b9050919050565b611209816111ee565b811461121457600080fd5b50565b60008135905061122681611200565b92915050565b6000819050919050565b61123f8161122c565b811461124a57600080fd5b50565b60008135905061125c81611236565b92915050565b60008060408385031215611279576112786111c9565b5b600061128785828601611217565b92505060206112988582860161124d565b9150509250929050565b60008115159050919050565b6112b7816112a2565b82525050565b60006020820190506112d260008301846112ae565b92915050565b6112e18161122c565b82525050565b60006020820190506112fc60008301846112d8565b92915050565b60008060006060848603121561131b5761131a6111c9565b5b600061132986828701611217565b935050602061133a86828701611217565b925050604061134b8682870161124d565b9150509250925092565b600060ff82169050919050565b61136b81611355565b82525050565b60006020820190506113866000830184611362565b92915050565b6000819050919050565b60006113b16113ac6113a7846111ce565b61138c565b6111ce565b9050919050565b60006113c382611396565b9050919050565b60006113d5826113b8565b9050919050565b6113e5816113ca565b82525050565b600060208201905061140060008301846113dc565b92915050565b60006020828403121561141c5761141b6111c9565b5b600061142a84828501611217565b91505092915050565b600060208284031215611449576114486111c9565b5b60006114578482850161124d565b91505092915050565b60008060408385031215611477576114766111c9565b5b600061148585828601611217565b925050602061149685828601611217565b9150509250929050565b7f4e487b7100000000000000000000000000000000000000000000000000000000600052602260045260246000fd5b600060028204905060018216806114e757607f821691505b602082108114156114fb576114fa6114a0565b5b50919050565b7f4e487b7100000000000000000000000000000000000000000000000000000000600052601160045260246000fd5b600061153b8261122c565b91506115468361122c565b9250827fffffffffffffffffffffffffffffffffffffffffffffffffffffffffffffffff0382111561157b5761157a611501565b5b828201905092915050565b7f45524332303a2064656372656173656420616c6c6f77616e63652062656c6f7760008201527f207a65726f000000000000000000000000000000000000000000000000000000602082015250565b60006115e2602583611119565b91506115ed82611586565b604082019050919050565b60006020820190508181036000830152611611816115d5565b9050919050565b7f45524332303a207472616e736665722066726f6d20746865207a65726f20616460008201527f6472657373000000000000000000000000000000000000000000000000000000602082015250565b6000611674602583611119565b915061167f82611618565b604082019050919050565b600060208201905081810360008301526116a381611667565b9050919050565b7f45524332303a207472616e7366657220746f20746865207a65726f206164647260008201527f6573730000000000000000000000000000000000000000000000000000000000602082015250565b6000611706602383611119565b9150611711826116aa565b604082019050919050565b60006020820190508181036000830152611735816116f9565b9050919050565b7f45524332303a207472616e7366657220616d6f756e742065786365656473206260008201527f616c616e63650000000000000000000000000000000000000000000000000000602082015250565b6000611798602683611119565b91506117a38261173c565b604082019050919050565b600060208201905081810360008301526117c78161178b565b9050919050565b6117d7816112a2565b81146117e257600080fd5b50565b6000815190506117f4816117ce565b92915050565b6000602082840312156118105761180f6111c9565b5b600061181e848285016117e5565b91505092915050565b7f45524332303a20617070726f76652066726f6d20746865207a65726f2061646460008201527f7265737300000000000000000000000000000000000000000000000000000000602082015250565b6000611883602483611119565b915061188e82611827565b604082019050919050565b600060208201905081810360008301526118b281611876565b9050919050565b7f45524332303a20617070726f766520746f20746865207a65726f20616464726560008201527f7373000000000000000000000000000000000000000000000000000000000000602082015250565b6000611915602283611119565b9150611920826118b9565b604082019050919050565b6000602082019050818103600083015261194481611908565b9050919050565b7f45524332303a20696e73756666696369656e7420616c6c6f77616e6365000000600082015250565b6000611981601d83611119565b915061198c8261194b565b602082019050919050565b600060208201905081810360008301526119b081611974565b9050919050565b7f45524332303a206275726e2066726f6d20746865207a65726f2061646472657360008201527f7300000000000000000000000000000000000000000000000000000000000000602082015250565b6000611a13602183611119565b9150611a1e826119b7565b604082019050919050565b60006020820190508181036000830152611a4281611a06565b9050919050565b7f45524332303a206275726e20616d6f756e7420657863656564732062616c616e60008201527f6365000000000000000000000000000000000000000000000000000000000000602082015250565b6000611aa5602283611119565b9150611ab082611a49565b604082019050919050565b60006020820190508181036000830152611ad481611a98565b9050919050565b6000611ae68261122c565b9150611af18361122c565b925082821015611b0457611b03611501565b5b82820390509291505056fea26469706673582212205a3915efb397aaff4b8cd646811bb8bf4a56ef594b9a2c760e37716cdc52e51364736f6c634300080b0033",
  "immutableReferences": {},
  "source": "// SPDX-License-Identifier: MIT\r\npragma solidity >=0.4.22 <0.9.0;\r\nimport \"openzeppelin-solidity/contracts/token/ERC20/ERC20.sol\";\r\nimport \"./Vault.sol\";\r\n\r\n//100000000000000000000000000\r\ncontract Steinnegen is ERC20 {\r\n    Vault public tokenContract;\r\n\r\n    /**\r\n     * @dev Emitted when `value` tokens are moved from one account (`from`) to\r\n     * another (`to`).\r\n     *\r\n     * Note that `value` may be zero.\r\n     */\r\n    event TransferToVault(\r\n        address indexed from,\r\n        Vault indexed tokenContract,\r\n        uint256 value\r\n    );\r\n\r\n    constructor(Vault _tokenContract) ERC20(\"Steinnegen\", \"STEIN\") {\r\n        _mint(msg.sender, 100000000000000000000000000);\r\n        tokenContract = _tokenContract;\r\n    }\r\n\r\n    function send(uint256 _numberOfTokens) public payable {\r\n        require(\r\n            msg.sender != address(0),\r\n            \"ERC20: transfer from the zero address\"\r\n        );\r\n        require(\r\n            address(tokenContract) != address(0),\r\n            \"ERC20: transfer to the zero address\"\r\n        );\r\n\r\n        _beforeTokenTransfer(\r\n            msg.sender,\r\n            address(tokenContract),\r\n            _numberOfTokens\r\n        );\r\n\r\n        uint256 fromBalance = balanceOf(msg.sender);\r\n\r\n        require(\r\n            fromBalance >= _numberOfTokens,\r\n            \"ERC20: transfer amount exceeds balance\"\r\n        );\r\n\r\n        tokenContract.transfer(_numberOfTokens);\r\n        _burn(msg.sender, _numberOfTokens);\r\n\r\n        emit TransferToVault(msg.sender, tokenContract, _numberOfTokens);\r\n    }\r\n}\r\n",
  "sourcePath": "E:\\Development\\_Personal\\Blockchain\\ico-steinnegen-coin\\contracts\\Steinnegen.sol",
  "compiler": {
    "name": "solc",
    "version": "0.8.11+commit.d7f03943.Emscripten.clang"
  },
  "schemaVersion": "3.4.4",
  "updatedAt": "2022-03-08T13:19:18.932Z",
  "networkType": "ethereum",
  "devdoc": {
    "events": {
      "TransferToVault(address,address,uint256)": {
        "details": "Emitted when `value` tokens are moved from one account (`from`) to another (`to`). Note that `value` may be zero."
      }
    },
    "kind": "dev",
    "methods": {
      "allowance(address,address)": {
        "details": "See {IERC20-allowance}."
      },
      "approve(address,uint256)": {
        "details": "See {IERC20-approve}. NOTE: If `amount` is the maximum `uint256`, the allowance is not updated on `transferFrom`. This is semantically equivalent to an infinite approval. Requirements: - `spender` cannot be the zero address."
      },
      "balanceOf(address)": {
        "details": "See {IERC20-balanceOf}."
      },
      "decimals()": {
        "details": "Returns the number of decimals used to get its user representation. For example, if `decimals` equals `2`, a balance of `505` tokens should be displayed to a user as `5.05` (`505 / 10 ** 2`). Tokens usually opt for a value of 18, imitating the relationship between Ether and Wei. This is the value {ERC20} uses, unless this function is overridden; NOTE: This information is only used for _display_ purposes: it in no way affects any of the arithmetic of the contract, including {IERC20-balanceOf} and {IERC20-transfer}."
      },
      "decreaseAllowance(address,uint256)": {
        "details": "Atomically decreases the allowance granted to `spender` by the caller. This is an alternative to {approve} that can be used as a mitigation for problems described in {IERC20-approve}. Emits an {Approval} event indicating the updated allowance. Requirements: - `spender` cannot be the zero address. - `spender` must have allowance for the caller of at least `subtractedValue`."
      },
      "increaseAllowance(address,uint256)": {
        "details": "Atomically increases the allowance granted to `spender` by the caller. This is an alternative to {approve} that can be used as a mitigation for problems described in {IERC20-approve}. Emits an {Approval} event indicating the updated allowance. Requirements: - `spender` cannot be the zero address."
      },
      "name()": {
        "details": "Returns the name of the token."
      },
      "symbol()": {
        "details": "Returns the symbol of the token, usually a shorter version of the name."
      },
      "totalSupply()": {
        "details": "See {IERC20-totalSupply}."
      },
      "transfer(address,uint256)": {
        "details": "See {IERC20-transfer}. Requirements: - `to` cannot be the zero address. - the caller must have a balance of at least `amount`."
      },
      "transferFrom(address,address,uint256)": {
        "details": "See {IERC20-transferFrom}. Emits an {Approval} event indicating the updated allowance. This is not required by the EIP. See the note at the beginning of {ERC20}. NOTE: Does not update the allowance if the current allowance is the maximum `uint256`. Requirements: - `from` and `to` cannot be the zero address. - `from` must have a balance of at least `amount`. - the caller must have allowance for ``from``'s tokens of at least `amount`."
      }
    },
    "version": 1
  },
  "userdoc": {
    "kind": "user",
    "methods": {},
    "version": 1
  }
}