{
  "contractName": "Steinnegen",
  "abi": [
    {
      "inputs": [
        {
          "internalType": "contract Vault",
          "name": "_tokenContract",
          "type": "address"
        }
      ],
      "stateMutability": "nonpayable",
      "type": "constructor"
    },
    {
      "anonymous": false,
      "inputs": [
        {
          "indexed": true,
          "internalType": "address",
          "name": "owner",
          "type": "address"
        },
        {
          "indexed": true,
          "internalType": "address",
          "name": "spender",
          "type": "address"
        },
        {
          "indexed": false,
          "internalType": "uint256",
          "name": "value",
          "type": "uint256"
        }
      ],
      "name": "Approval",
      "type": "event"
    },
    {
      "anonymous": false,
      "inputs": [
        {
          "indexed": true,
          "internalType": "address",
          "name": "from",
          "type": "address"
        },
        {
          "indexed": true,
          "internalType": "address",
          "name": "to",
          "type": "address"
        },
        {
          "indexed": false,
          "internalType": "uint256",
          "name": "value",
          "type": "uint256"
        }
      ],
      "name": "Transfer",
      "type": "event"
    },
    {
      "anonymous": false,
      "inputs": [
        {
          "indexed": true,
          "internalType": "address",
          "name": "from",
          "type": "address"
        },
        {
          "indexed": true,
          "internalType": "contract Vault",
          "name": "tokenContract",
          "type": "address"
        },
        {
          "indexed": false,
          "internalType": "uint256",
          "name": "value",
          "type": "uint256"
        }
      ],
      "name": "TransferToVault",
      "type": "event"
    },
    {
      "inputs": [
        {
          "internalType": "address",
          "name": "owner",
          "type": "address"
        },
        {
          "internalType": "address",
          "name": "spender",
          "type": "address"
        }
      ],
      "name": "allowance",
      "outputs": [
        {
          "internalType": "uint256",
          "name": "",
          "type": "uint256"
        }
      ],
      "stateMutability": "view",
      "type": "function"
    },
    {
      "inputs": [
        {
          "internalType": "address",
          "name": "spender",
          "type": "address"
        },
        {
          "internalType": "uint256",
          "name": "amount",
          "type": "uint256"
        }
      ],
      "name": "approve",
      "outputs": [
        {
          "internalType": "bool",
          "name": "",
          "type": "bool"
        }
      ],
      "stateMutability": "nonpayable",
      "type": "function"
    },
    {
      "inputs": [
        {
          "internalType": "address",
          "name": "account",
          "type": "address"
        }
      ],
      "name": "balanceOf",
      "outputs": [
        {
          "internalType": "uint256",
          "name": "",
          "type": "uint256"
        }
      ],
      "stateMutability": "view",
      "type": "function"
    },
    {
      "inputs": [],
      "name": "decimals",
      "outputs": [
        {
          "internalType": "uint8",
          "name": "",
          "type": "uint8"
        }
      ],
      "stateMutability": "view",
      "type": "function"
    },
    {
      "inputs": [
        {
          "internalType": "address",
          "name": "spender",
          "type": "address"
        },
        {
          "internalType": "uint256",
          "name": "subtractedValue",
          "type": "uint256"
        }
      ],
      "name": "decreaseAllowance",
      "outputs": [
        {
          "internalType": "bool",
          "name": "",
          "type": "bool"
        }
      ],
      "stateMutability": "nonpayable",
      "type": "function"
    },
    {
      "inputs": [
        {
          "internalType": "address",
          "name": "spender",
          "type": "address"
        },
        {
          "internalType": "uint256",
          "name": "addedValue",
          "type": "uint256"
        }
      ],
      "name": "increaseAllowance",
      "outputs": [
        {
          "internalType": "bool",
          "name": "",
          "type": "bool"
        }
      ],
      "stateMutability": "nonpayable",
      "type": "function"
    },
    {
      "inputs": [],
      "name": "name",
      "outputs": [
        {
          "internalType": "string",
          "name": "",
          "type": "string"
        }
      ],
      "stateMutability": "view",
      "type": "function"
    },
    {
      "inputs": [],
      "name": "symbol",
      "outputs": [
        {
          "internalType": "string",
          "name": "",
          "type": "string"
        }
      ],
      "stateMutability": "view",
      "type": "function"
    },
    {
      "inputs": [],
      "name": "tokenContract",
      "outputs": [
        {
          "internalType": "contract Vault",
          "name": "",
          "type": "address"
        }
      ],
      "stateMutability": "view",
      "type": "function"
    },
    {
      "inputs": [],
      "name": "totalSupply",
      "outputs": [
        {
          "internalType": "uint256",
          "name": "",
          "type": "uint256"
        }
      ],
      "stateMutability": "view",
      "type": "function"
    },
    {
      "inputs": [
        {
          "internalType": "address",
          "name": "to",
          "type": "address"
        },
        {
          "internalType": "uint256",
          "name": "amount",
          "type": "uint256"
        }
      ],
      "name": "transfer",
      "outputs": [
        {
          "internalType": "bool",
          "name": "",
          "type": "bool"
        }
      ],
      "stateMutability": "nonpayable",
      "type": "function"
    },
    {
      "inputs": [
        {
          "internalType": "address",
          "name": "from",
          "type": "address"
        },
        {
          "internalType": "address",
          "name": "to",
          "type": "address"
        },
        {
          "internalType": "uint256",
          "name": "amount",
          "type": "uint256"
        }
      ],
      "name": "transferFrom",
      "outputs": [
        {
          "internalType": "bool",
          "name": "",
          "type": "bool"
        }
      ],
      "stateMutability": "nonpayable",
      "type": "function"
    },
    {
      "inputs": [],
      "name": "send",
      "outputs": [],
      "stateMutability": "payable",
      "type": "function"
    }
  ],
  "bytecode": "0x60806040523480156200001157600080fd5b5060405162001d1838038062001d188339818101604052810190620000379190620003ed565b6040518060400160405280600a81526020017f537465696e6e6567656e000000000000000000000000000000000000000000008152506040518060400160405280600581526020017f535445494e0000000000000000000000000000000000000000000000000000008152508160039080519060200190620000bb929190620002bf565b508060049080519060200190620000d4929190620002bf565b505050620000f4336a52b7d2dcc80cd2e40000006200013c60201b60201c565b80600560006101000a81548173ffffffffffffffffffffffffffffffffffffffff021916908373ffffffffffffffffffffffffffffffffffffffff16021790555050620005cb565b600073ffffffffffffffffffffffffffffffffffffffff168273ffffffffffffffffffffffffffffffffffffffff161415620001af576040517f08c379a0000000000000000000000000000000000000000000000000000000008152600401620001a69062000480565b60405180910390fd5b620001c360008383620002b560201b60201c565b8060026000828254620001d79190620004db565b92505081905550806000808473ffffffffffffffffffffffffffffffffffffffff1673ffffffffffffffffffffffffffffffffffffffff16815260200190815260200160002060008282546200022e9190620004db565b925050819055508173ffffffffffffffffffffffffffffffffffffffff16600073ffffffffffffffffffffffffffffffffffffffff167fddf252ad1be2c89b69c2b068fc378daa952ba7f163c4a11628f55a4df523b3ef8360405162000295919062000549565b60405180910390a3620002b160008383620002ba60201b60201c565b5050565b505050565b505050565b828054620002cd9062000595565b90600052602060002090601f016020900481019282620002f157600085556200033d565b82601f106200030c57805160ff19168380011785556200033d565b828001600101855582156200033d579182015b828111156200033c5782518255916020019190600101906200031f565b5b5090506200034c919062000350565b5090565b5b808211156200036b57600081600090555060010162000351565b5090565b600080fd5b600073ffffffffffffffffffffffffffffffffffffffff82169050919050565b6000620003a18262000374565b9050919050565b6000620003b58262000394565b9050919050565b620003c781620003a8565b8114620003d357600080fd5b50565b600081519050620003e781620003bc565b92915050565b6000602082840312156200040657620004056200036f565b5b60006200041684828501620003d6565b91505092915050565b600082825260208201905092915050565b7f45524332303a206d696e7420746f20746865207a65726f206164647265737300600082015250565b600062000468601f836200041f565b9150620004758262000430565b602082019050919050565b600060208201905081810360008301526200049b8162000459565b9050919050565b6000819050919050565b7f4e487b7100000000000000000000000000000000000000000000000000000000600052601160045260246000fd5b6000620004e882620004a2565b9150620004f583620004a2565b9250827fffffffffffffffffffffffffffffffffffffffffffffffffffffffffffffffff038211156200052d576200052c620004ac565b5b828201905092915050565b6200054381620004a2565b82525050565b600060208201905062000560600083018462000538565b92915050565b7f4e487b7100000000000000000000000000000000000000000000000000000000600052602260045260246000fd5b60006002820490506001821680620005ae57607f821691505b60208210811415620005c557620005c462000566565b5b50919050565b61173d80620005db6000396000f3fe6080604052600436106100c25760003560e01c806355a373d61161007f578063a457c2d711610059578063a457c2d714610292578063a9059cbb146102cf578063b46300ec1461030c578063dd62ed3e14610316576100c2565b806355a373d6146101ff57806370a082311461022a57806395d89b4114610267576100c2565b806306fdde03146100c7578063095ea7b3146100f257806318160ddd1461012f57806323b872dd1461015a578063313ce5671461019757806339509351146101c2575b600080fd5b3480156100d357600080fd5b506100dc610353565b6040516100e99190610f7d565b60405180910390f35b3480156100fe57600080fd5b5061011960048036038101906101149190611038565b6103e5565b6040516101269190611093565b60405180910390f35b34801561013b57600080fd5b50610144610408565b60405161015191906110bd565b60405180910390f35b34801561016657600080fd5b50610181600480360381019061017c91906110d8565b610412565b60405161018e9190611093565b60405180910390f35b3480156101a357600080fd5b506101ac610441565b6040516101b99190611147565b60405180910390f35b3480156101ce57600080fd5b506101e960048036038101906101e49190611038565b61044a565b6040516101f69190611093565b60405180910390f35b34801561020b57600080fd5b506102146104f4565b60405161022191906111c1565b60405180910390f35b34801561023657600080fd5b50610251600480360381019061024c91906111dc565b61051a565b60405161025e91906110bd565b60405180910390f35b34801561027357600080fd5b5061027c610562565b6040516102899190610f7d565b60405180910390f35b34801561029e57600080fd5b506102b960048036038101906102b49190611038565b6105f4565b6040516102c69190611093565b60405180910390f35b3480156102db57600080fd5b506102f660048036038101906102f19190611038565b6106de565b6040516103039190611093565b60405180910390f35b610314610701565b005b34801561032257600080fd5b5061033d60048036038101906103389190611209565b610973565b60405161034a91906110bd565b60405180910390f35b60606003805461036290611278565b80601f016020809104026020016040519081016040528092919081815260200182805461038e90611278565b80156103db5780601f106103b0576101008083540402835291602001916103db565b820191906000526020600020905b8154815290600101906020018083116103be57829003601f168201915b5050505050905090565b6000806103f06109fa565b90506103fd818585610a02565b600191505092915050565b6000600254905090565b60008061041d6109fa565b905061042a858285610bcd565b610435858585610c59565b60019150509392505050565b60006012905090565b6000806104556109fa565b90506104e9818585600160008673ffffffffffffffffffffffffffffffffffffffff1673ffffffffffffffffffffffffffffffffffffffff16815260200190815260200160002060008973ffffffffffffffffffffffffffffffffffffffff1673ffffffffffffffffffffffffffffffffffffffff168152602001908152602001600020546104e491906112d9565b610a02565b600191505092915050565b600560009054906101000a900473ffffffffffffffffffffffffffffffffffffffff1681565b60008060008373ffffffffffffffffffffffffffffffffffffffff1673ffffffffffffffffffffffffffffffffffffffff168152602001908152602001600020549050919050565b60606004805461057190611278565b80601f016020809104026020016040519081016040528092919081815260200182805461059d90611278565b80156105ea5780601f106105bf576101008083540402835291602001916105ea565b820191906000526020600020905b8154815290600101906020018083116105cd57829003601f168201915b5050505050905090565b6000806105ff6109fa565b90506000600160008373ffffffffffffffffffffffffffffffffffffffff1673ffffffffffffffffffffffffffffffffffffffff16815260200190815260200160002060008673ffffffffffffffffffffffffffffffffffffffff1673ffffffffffffffffffffffffffffffffffffffff168152602001908152602001600020549050838110156106c5576040517f08c379a00000000000000000000000000000000000000000000000000000000081526004016106bc906113a1565b60405180910390fd5b6106d28286868403610a02565b60019250505092915050565b6000806106e96109fa565b90506106f6818585610c59565b600191505092915050565b600073ffffffffffffffffffffffffffffffffffffffff163373ffffffffffffffffffffffffffffffffffffffff161415610771576040517f08c379a000000000000000000000000000000000000000000000000000000000815260040161076890611433565b60405180910390fd5b600073ffffffffffffffffffffffffffffffffffffffff16600560009054906101000a900473ffffffffffffffffffffffffffffffffffffffff1673ffffffffffffffffffffffffffffffffffffffff161415610803576040517f08c379a00000000000000000000000000000000000000000000000000000000081526004016107fa906114c5565b60405180910390fd5b61083033600560009054906101000a900473ffffffffffffffffffffffffffffffffffffffff1634610eda565b600061083b3361051a565b905034811015610880576040517f08c379a000000000000000000000000000000000000000000000000000000000815260040161087790611557565b60405180910390fd5b600560009054906101000a900473ffffffffffffffffffffffffffffffffffffffff1673ffffffffffffffffffffffffffffffffffffffff166108fc349081150290604051600060405180830381858888f193505050501580156108e8573d6000803e3d6000fd5b50600560009054906101000a900473ffffffffffffffffffffffffffffffffffffffff1673ffffffffffffffffffffffffffffffffffffffff163373ffffffffffffffffffffffffffffffffffffffff167f0e5a6a70f86bd855848884adc711a760ef3c31acdcd5fa61ab341349c7f2c8713460405161096891906110bd565b60405180910390a350565b6000600160008473ffffffffffffffffffffffffffffffffffffffff1673ffffffffffffffffffffffffffffffffffffffff16815260200190815260200160002060008373ffffffffffffffffffffffffffffffffffffffff1673ffffffffffffffffffffffffffffffffffffffff16815260200190815260200160002054905092915050565b600033905090565b600073ffffffffffffffffffffffffffffffffffffffff168373ffffffffffffffffffffffffffffffffffffffff161415610a72576040517f08c379a0000000000000000000000000000000000000000000000000000000008152600401610a69906115e9565b60405180910390fd5b600073ffffffffffffffffffffffffffffffffffffffff168273ffffffffffffffffffffffffffffffffffffffff161415610ae2576040517f08c379a0000000000000000000000000000000000000000000000000000000008152600401610ad99061167b565b60405180910390fd5b80600160008573ffffffffffffffffffffffffffffffffffffffff1673ffffffffffffffffffffffffffffffffffffffff16815260200190815260200160002060008473ffffffffffffffffffffffffffffffffffffffff1673ffffffffffffffffffffffffffffffffffffffff168152602001908152602001600020819055508173ffffffffffffffffffffffffffffffffffffffff168373ffffffffffffffffffffffffffffffffffffffff167f8c5be1e5ebec7d5bd14f71427d1e84f3dd0314c0f7b2291e5b200ac8c7c3b92583604051610bc091906110bd565b60405180910390a3505050565b6000610bd98484610973565b90507fffffffffffffffffffffffffffffffffffffffffffffffffffffffffffffffff8114610c535781811015610c45576040517f08c379a0000000000000000000000000000000000000000000000000000000008152600401610c3c906116e7565b60405180910390fd5b610c528484848403610a02565b5b50505050565b600073ffffffffffffffffffffffffffffffffffffffff168373ffffffffffffffffffffffffffffffffffffffff161415610cc9576040517f08c379a0000000000000000000000000000000000000000000000000000000008152600401610cc090611433565b60405180910390fd5b600073ffffffffffffffffffffffffffffffffffffffff168273ffffffffffffffffffffffffffffffffffffffff161415610d39576040517f08c379a0000000000000000000000000000000000000000000000000000000008152600401610d30906114c5565b60405180910390fd5b610d44838383610eda565b60008060008573ffffffffffffffffffffffffffffffffffffffff1673ffffffffffffffffffffffffffffffffffffffff16815260200190815260200160002054905081811015610dca576040517f08c379a0000000000000000000000000000000000000000000000000000000008152600401610dc190611557565b60405180910390fd5b8181036000808673ffffffffffffffffffffffffffffffffffffffff1673ffffffffffffffffffffffffffffffffffffffff16815260200190815260200160002081905550816000808573ffffffffffffffffffffffffffffffffffffffff1673ffffffffffffffffffffffffffffffffffffffff1681526020019081526020016000206000828254610e5d91906112d9565b925050819055508273ffffffffffffffffffffffffffffffffffffffff168473ffffffffffffffffffffffffffffffffffffffff167fddf252ad1be2c89b69c2b068fc378daa952ba7f163c4a11628f55a4df523b3ef84604051610ec191906110bd565b60405180910390a3610ed4848484610edf565b50505050565b505050565b505050565b600081519050919050565b600082825260208201905092915050565b60005b83811015610f1e578082015181840152602081019050610f03565b83811115610f2d576000848401525b50505050565b6000601f19601f8301169050919050565b6000610f4f82610ee4565b610f598185610eef565b9350610f69818560208601610f00565b610f7281610f33565b840191505092915050565b60006020820190508181036000830152610f978184610f44565b905092915050565b600080fd5b600073ffffffffffffffffffffffffffffffffffffffff82169050919050565b6000610fcf82610fa4565b9050919050565b610fdf81610fc4565b8114610fea57600080fd5b50565b600081359050610ffc81610fd6565b92915050565b6000819050919050565b61101581611002565b811461102057600080fd5b50565b6000813590506110328161100c565b92915050565b6000806040838503121561104f5761104e610f9f565b5b600061105d85828601610fed565b925050602061106e85828601611023565b9150509250929050565b60008115159050919050565b61108d81611078565b82525050565b60006020820190506110a86000830184611084565b92915050565b6110b781611002565b82525050565b60006020820190506110d260008301846110ae565b92915050565b6000806000606084860312156110f1576110f0610f9f565b5b60006110ff86828701610fed565b935050602061111086828701610fed565b925050604061112186828701611023565b9150509250925092565b600060ff82169050919050565b6111418161112b565b82525050565b600060208201905061115c6000830184611138565b92915050565b6000819050919050565b600061118761118261117d84610fa4565b611162565b610fa4565b9050919050565b60006111998261116c565b9050919050565b60006111ab8261118e565b9050919050565b6111bb816111a0565b82525050565b60006020820190506111d660008301846111b2565b92915050565b6000602082840312156111f2576111f1610f9f565b5b600061120084828501610fed565b91505092915050565b600080604083850312156112205761121f610f9f565b5b600061122e85828601610fed565b925050602061123f85828601610fed565b9150509250929050565b7f4e487b7100000000000000000000000000000000000000000000000000000000600052602260045260246000fd5b6000600282049050600182168061129057607f821691505b602082108114156112a4576112a3611249565b5b50919050565b7f4e487b7100000000000000000000000000000000000000000000000000000000600052601160045260246000fd5b60006112e482611002565b91506112ef83611002565b9250827fffffffffffffffffffffffffffffffffffffffffffffffffffffffffffffffff03821115611324576113236112aa565b5b828201905092915050565b7f45524332303a2064656372656173656420616c6c6f77616e63652062656c6f7760008201527f207a65726f000000000000000000000000000000000000000000000000000000602082015250565b600061138b602583610eef565b91506113968261132f565b604082019050919050565b600060208201905081810360008301526113ba8161137e565b9050919050565b7f45524332303a207472616e736665722066726f6d20746865207a65726f20616460008201527f6472657373000000000000000000000000000000000000000000000000000000602082015250565b600061141d602583610eef565b9150611428826113c1565b604082019050919050565b6000602082019050818103600083015261144c81611410565b9050919050565b7f45524332303a207472616e7366657220746f20746865207a65726f206164647260008201527f6573730000000000000000000000000000000000000000000000000000000000602082015250565b60006114af602383610eef565b91506114ba82611453565b604082019050919050565b600060208201905081810360008301526114de816114a2565b9050919050565b7f45524332303a207472616e7366657220616d6f756e742065786365656473206260008201527f616c616e63650000000000000000000000000000000000000000000000000000602082015250565b6000611541602683610eef565b915061154c826114e5565b604082019050919050565b6000602082019050818103600083015261157081611534565b9050919050565b7f45524332303a20617070726f76652066726f6d20746865207a65726f2061646460008201527f7265737300000000000000000000000000000000000000000000000000000000602082015250565b60006115d3602483610eef565b91506115de82611577565b604082019050919050565b60006020820190508181036000830152611602816115c6565b9050919050565b7f45524332303a20617070726f766520746f20746865207a65726f20616464726560008201527f7373000000000000000000000000000000000000000000000000000000000000602082015250565b6000611665602283610eef565b915061167082611609565b604082019050919050565b6000602082019050818103600083015261169481611658565b9050919050565b7f45524332303a20696e73756666696369656e7420616c6c6f77616e6365000000600082015250565b60006116d1601d83610eef565b91506116dc8261169b565b602082019050919050565b60006020820190508181036000830152611700816116c4565b905091905056fea26469706673582212209b7f93467f28be365e3e02293fd8ace08ef04f2ecb058f3b5429ddd88cf53f1064736f6c634300080b0033",
  "immutableReferences": {},
  "source": "// SPDX-License-Identifier: MIT\r\npragma solidity >=0.4.22 <0.9.0;\r\nimport \"openzeppelin-solidity/contracts/token/ERC20/ERC20.sol\";\r\nimport \"./Vault.sol\";\r\n\r\n//100000000000000000000000000\r\ncontract Steinnegen is ERC20 {\r\n    Vault public tokenContract;\r\n\r\n    /**\r\n     * @dev Emitted when `value` tokens are moved from one account (`from`) to\r\n     * another (`to`).\r\n     *\r\n     * Note that `value` may be zero.\r\n     */\r\n    event TransferToVault(\r\n        address indexed from,\r\n        Vault indexed tokenContract,\r\n        uint256 value\r\n    );\r\n\r\n    constructor(Vault _tokenContract) ERC20(\"Steinnegen\", \"STEIN\") {\r\n        _mint(msg.sender, 100000000000000000000000000);\r\n        tokenContract = _tokenContract;\r\n    }\r\n\r\n    function send() public payable {\r\n        require(msg.sender != address(0), \"ERC20: transfer from the zero address\");\r\n        require(address(tokenContract) != address(0), \"ERC20: transfer to the zero address\");\r\n\r\n        _beforeTokenTransfer(msg.sender, address(tokenContract), msg.value);\r\n\r\n        uint256 fromBalance = balanceOf(msg.sender);\r\n\r\n        require(\r\n            fromBalance >= msg.value,\r\n            \"ERC20: transfer amount exceeds balance\"\r\n        );\r\n\r\n\r\n        \r\n        payable(address(tokenContract)).transfer(msg.value);\r\n\r\n        emit TransferToVault(msg.sender, tokenContract, msg.value);\r\n    }\r\n}\r\n",
  "sourcePath": "E:\\Development\\_Personal\\Blockchain\\ico-steinnegen-coin\\contracts\\Steinnegen.sol",
  "compiler": {
    "name": "solc",
    "version": "0.8.11+commit.d7f03943.Emscripten.clang"
  },
  "schemaVersion": "3.4.4",
  "updatedAt": "2022-03-08T11:46:00.019Z",
  "devdoc": {
    "events": {
      "TransferToVault(address,address,uint256)": {
        "details": "Emitted when `value` tokens are moved from one account (`from`) to another (`to`). Note that `value` may be zero."
      }
    },
    "kind": "dev",
    "methods": {
      "allowance(address,address)": {
        "details": "See {IERC20-allowance}."
      },
      "approve(address,uint256)": {
        "details": "See {IERC20-approve}. NOTE: If `amount` is the maximum `uint256`, the allowance is not updated on `transferFrom`. This is semantically equivalent to an infinite approval. Requirements: - `spender` cannot be the zero address."
      },
      "balanceOf(address)": {
        "details": "See {IERC20-balanceOf}."
      },
      "decimals()": {
        "details": "Returns the number of decimals used to get its user representation. For example, if `decimals` equals `2`, a balance of `505` tokens should be displayed to a user as `5.05` (`505 / 10 ** 2`). Tokens usually opt for a value of 18, imitating the relationship between Ether and Wei. This is the value {ERC20} uses, unless this function is overridden; NOTE: This information is only used for _display_ purposes: it in no way affects any of the arithmetic of the contract, including {IERC20-balanceOf} and {IERC20-transfer}."
      },
      "decreaseAllowance(address,uint256)": {
        "details": "Atomically decreases the allowance granted to `spender` by the caller. This is an alternative to {approve} that can be used as a mitigation for problems described in {IERC20-approve}. Emits an {Approval} event indicating the updated allowance. Requirements: - `spender` cannot be the zero address. - `spender` must have allowance for the caller of at least `subtractedValue`."
      },
      "increaseAllowance(address,uint256)": {
        "details": "Atomically increases the allowance granted to `spender` by the caller. This is an alternative to {approve} that can be used as a mitigation for problems described in {IERC20-approve}. Emits an {Approval} event indicating the updated allowance. Requirements: - `spender` cannot be the zero address."
      },
      "name()": {
        "details": "Returns the name of the token."
      },
      "symbol()": {
        "details": "Returns the symbol of the token, usually a shorter version of the name."
      },
      "totalSupply()": {
        "details": "See {IERC20-totalSupply}."
      },
      "transfer(address,uint256)": {
        "details": "See {IERC20-transfer}. Requirements: - `to` cannot be the zero address. - the caller must have a balance of at least `amount`."
      },
      "transferFrom(address,address,uint256)": {
        "details": "See {IERC20-transferFrom}. Emits an {Approval} event indicating the updated allowance. This is not required by the EIP. See the note at the beginning of {ERC20}. NOTE: Does not update the allowance if the current allowance is the maximum `uint256`. Requirements: - `from` and `to` cannot be the zero address. - `from` must have a balance of at least `amount`. - the caller must have allowance for ``from``'s tokens of at least `amount`."
      }
    },
    "version": 1
  },
  "userdoc": {
    "kind": "user",
    "methods": {},
    "version": 1
  }
}