{
  "contractName": "VaultFactory",
  "abi": [
    {
      "anonymous": false,
      "inputs": [
        {
          "indexed": false,
          "internalType": "address",
          "name": "wallet",
          "type": "address"
        },
        {
          "indexed": false,
          "internalType": "address",
          "name": "from",
          "type": "address"
        },
        {
          "indexed": false,
          "internalType": "address",
          "name": "to",
          "type": "address"
        },
        {
          "indexed": false,
          "internalType": "uint256",
          "name": "createdAt",
          "type": "uint256"
        },
        {
          "indexed": false,
          "internalType": "uint256",
          "name": "unlockDate",
          "type": "uint256"
        },
        {
          "indexed": false,
          "internalType": "uint256",
          "name": "amount",
          "type": "uint256"
        }
      ],
      "name": "Created",
      "type": "event"
    },
    {
      "stateMutability": "nonpayable",
      "type": "fallback"
    },
    {
      "inputs": [
        {
          "internalType": "address",
          "name": "_user",
          "type": "address"
        }
      ],
      "name": "getWallets",
      "outputs": [
        {
          "internalType": "address[]",
          "name": "",
          "type": "address[]"
        }
      ],
      "stateMutability": "view",
      "type": "function"
    },
    {
      "inputs": [
        {
          "internalType": "address",
          "name": "_owner",
          "type": "address"
        },
        {
          "internalType": "uint256",
          "name": "_unlockDate",
          "type": "uint256"
        }
      ],
      "name": "newVault",
      "outputs": [
        {
          "internalType": "address",
          "name": "wallet",
          "type": "address"
        }
      ],
      "stateMutability": "payable",
      "type": "function"
    }
  ],
  "bytecode": "0x608060405234801561001057600080fd5b50611042806100206000396000f3fe60806040526004361061002d5760003560e01c80632eeabd8f14610040578063422c29a4146100705761002e565b5b34801561003a57600080fd5b50600080fd5b61005a6004803603810190610055919061045b565b6100ad565b60405161006791906104aa565b60405180910390f35b34801561007c57600080fd5b50610097600480360381019061009291906104c5565b6102e9565b6040516100a491906105b0565b60405180910390f35b60003383836040516100be906103b5565b6100ca939291906105e1565b604051809103906000f0801580156100e6573d6000803e3d6000fd5b5090506000803373ffffffffffffffffffffffffffffffffffffffff1673ffffffffffffffffffffffffffffffffffffffff168152602001908152602001600020819080600181540180825580915050600190039060005260206000200160009091909190916101000a81548173ffffffffffffffffffffffffffffffffffffffff021916908373ffffffffffffffffffffffffffffffffffffffff1602179055508273ffffffffffffffffffffffffffffffffffffffff163373ffffffffffffffffffffffffffffffffffffffff161461025b576000808473ffffffffffffffffffffffffffffffffffffffff1673ffffffffffffffffffffffffffffffffffffffff168152602001908152602001600020819080600181540180825580915050600190039060005260206000200160009091909190916101000a81548173ffffffffffffffffffffffffffffffffffffffff021916908373ffffffffffffffffffffffffffffffffffffffff1602179055505b8073ffffffffffffffffffffffffffffffffffffffff166108fc349081150290604051600060405180830381858888f193505050501580156102a1573d6000803e3d6000fd5b507f14d5db8c1f746c7adcbcd13cf8945dd2ac6ad58be52380b8c4933c876f76e1bf8133854286346040516102db96959493929190610618565b60405180910390a192915050565b60606000808373ffffffffffffffffffffffffffffffffffffffff1673ffffffffffffffffffffffffffffffffffffffff1681526020019081526020016000208054806020026020016040519081016040528092919081815260200182805480156103a957602002820191906000526020600020905b8160009054906101000a900473ffffffffffffffffffffffffffffffffffffffff1673ffffffffffffffffffffffffffffffffffffffff168152602001906001019080831161035f575b50505050509050919050565b6109938061067a83390190565b600080fd5b600073ffffffffffffffffffffffffffffffffffffffff82169050919050565b60006103f2826103c7565b9050919050565b610402816103e7565b811461040d57600080fd5b50565b60008135905061041f816103f9565b92915050565b6000819050919050565b61043881610425565b811461044357600080fd5b50565b6000813590506104558161042f565b92915050565b60008060408385031215610472576104716103c2565b5b600061048085828601610410565b925050602061049185828601610446565b9150509250929050565b6104a4816103e7565b82525050565b60006020820190506104bf600083018461049b565b92915050565b6000602082840312156104db576104da6103c2565b5b60006104e984828501610410565b91505092915050565b600081519050919050565b600082825260208201905092915050565b6000819050602082019050919050565b610527816103e7565b82525050565b6000610539838361051e565b60208301905092915050565b6000602082019050919050565b600061055d826104f2565b61056781856104fd565b93506105728361050e565b8060005b838110156105a357815161058a888261052d565b975061059583610545565b925050600181019050610576565b5085935050505092915050565b600060208201905081810360008301526105ca8184610552565b905092915050565b6105db81610425565b82525050565b60006060820190506105f6600083018661049b565b610603602083018561049b565b61061060408301846105d2565b949350505050565b600060c08201905061062d600083018961049b565b61063a602083018861049b565b610647604083018761049b565b61065460608301866105d2565b61066160808301856105d2565b61066e60a08301846105d2565b97965050505050505056fe608060405234801561001057600080fd5b5060405161099338038061099383398181016040528101906100329190610162565b826000806101000a81548173ffffffffffffffffffffffffffffffffffffffff021916908373ffffffffffffffffffffffffffffffffffffffff16021790555081600160006101000a81548173ffffffffffffffffffffffffffffffffffffffff021916908373ffffffffffffffffffffffffffffffffffffffff16021790555080600281905550426003819055505050506101b5565b600080fd5b600073ffffffffffffffffffffffffffffffffffffffff82169050919050565b60006100f9826100ce565b9050919050565b610109816100ee565b811461011457600080fd5b50565b60008151905061012681610100565b92915050565b6000819050919050565b61013f8161012c565b811461014a57600080fd5b50565b60008151905061015c81610136565b92915050565b60008060006060848603121561017b5761017a6100c9565b5b600061018986828701610117565b935050602061019a86828701610117565b92505060406101ab8682870161014d565b9150509250925092565b6107cf806101c46000396000f3fe6080604052600436106100745760003560e01c806349df728c1161004e57806349df728c1461011d57806369ac5721146101465780638da5cb5b14610171578063cf09e0d01461019c576100b4565b806302d05d3f146100b9578063370158ea146100e45780633ccfd60b14610113576100b4565b366100b4577f88a5966d370b9919b20f3e2c13ff65706f196a4e32cc2c12bf57088f8852587433346040516100aa929190610594565b60405180910390a1005b600080fd5b3480156100c557600080fd5b506100ce6101c7565b6040516100db91906105bd565b60405180910390f35b3480156100f057600080fd5b506100f96101eb565b60405161010a9594939291906105d8565b60405180910390f35b61011b610250565b005b34801561012957600080fd5b50610144600480360381019061013f919061065c565b61033b565b005b34801561015257600080fd5b5061015b610508565b6040516101689190610689565b60405180910390f35b34801561017d57600080fd5b5061018661050e565b60405161019391906105bd565b60405180910390f35b3480156101a857600080fd5b506101b1610534565b6040516101be9190610689565b60405180910390f35b60008054906101000a900473ffffffffffffffffffffffffffffffffffffffff1681565b60008060008060008060009054906101000a900473ffffffffffffffffffffffffffffffffffffffff16600160009054906101000a900473ffffffffffffffffffffffffffffffffffffffff1660025460035447945094509450945094509091929394565b600160009054906101000a900473ffffffffffffffffffffffffffffffffffffffff1673ffffffffffffffffffffffffffffffffffffffff163373ffffffffffffffffffffffffffffffffffffffff16146102aa57600080fd5b6002544210156102b957600080fd5b3373ffffffffffffffffffffffffffffffffffffffff166108fc479081150290604051600060405180830381858888f193505050501580156102ff573d6000803e3d6000fd5b507fb244b9a17ad633c6e83b7983ee04320484956a68ddbe96a0b70dfca1cf19d7233347604051610331929190610594565b60405180910390a1565b600160009054906101000a900473ffffffffffffffffffffffffffffffffffffffff1673ffffffffffffffffffffffffffffffffffffffff163373ffffffffffffffffffffffffffffffffffffffff161461039557600080fd5b6002544210156103a457600080fd5b600081905060008173ffffffffffffffffffffffffffffffffffffffff166370a08231306040518263ffffffff1660e01b81526004016103e491906105bd565b602060405180830381865afa158015610401573d6000803e3d6000fd5b505050506040513d601f19601f8201168201806040525081019061042591906106d0565b90508173ffffffffffffffffffffffffffffffffffffffff1663a9059cbb600160009054906101000a900473ffffffffffffffffffffffffffffffffffffffff16836040518363ffffffff1660e01b8152600401610484929190610594565b6020604051808303816000875af11580156104a3573d6000803e3d6000fd5b505050506040513d601f19601f820116820180604052508101906104c79190610735565b507fa04c965e7d289704527a948915777d68bb4530fb4b08aa935fb958c0b7901ab98333836040516104fb93929190610762565b60405180910390a1505050565b60025481565b600160009054906101000a900473ffffffffffffffffffffffffffffffffffffffff1681565b60035481565b600073ffffffffffffffffffffffffffffffffffffffff82169050919050565b60006105658261053a565b9050919050565b6105758161055a565b82525050565b6000819050919050565b61058e8161057b565b82525050565b60006040820190506105a9600083018561056c565b6105b66020830184610585565b9392505050565b60006020820190506105d2600083018461056c565b92915050565b600060a0820190506105ed600083018861056c565b6105fa602083018761056c565b6106076040830186610585565b6106146060830185610585565b6106216080830184610585565b9695505050505050565b600080fd5b6106398161055a565b811461064457600080fd5b50565b60008135905061065681610630565b92915050565b6000602082840312156106725761067161062b565b5b600061068084828501610647565b91505092915050565b600060208201905061069e6000830184610585565b92915050565b6106ad8161057b565b81146106b857600080fd5b50565b6000815190506106ca816106a4565b92915050565b6000602082840312156106e6576106e561062b565b5b60006106f4848285016106bb565b91505092915050565b60008115159050919050565b610712816106fd565b811461071d57600080fd5b50565b60008151905061072f81610709565b92915050565b60006020828403121561074b5761074a61062b565b5b600061075984828501610720565b91505092915050565b6000606082019050610777600083018661056c565b610784602083018561056c565b6107916040830184610585565b94935050505056fea264697066735822122073f95261958ce647e4055fe9d5f470325865366b7bb4d99229308a89497e9c1064736f6c634300080b0033a264697066735822122077a2507022af3060dfeae6a761f4f04d086f4d0ac999c28ac586f294dfaacb7d64736f6c634300080b0033",
  "immutableReferences": {},
  "source": "// SPDX-License-Identifier: MIT\r\npragma solidity >=0.4.22 <0.9.0;\r\nimport \"./Vault.sol\";\r\n\r\ncontract VaultFactory {\r\n \r\n    mapping(address => address[]) wallets;\r\n\r\n    function getWallets(address _user) \r\n        public\r\n        view\r\n        returns(address[] memory)\r\n    {\r\n        return wallets[_user];\r\n    }\r\n\r\n    function newVault(address _owner, uint256 _unlockDate)\r\n        payable\r\n        public\r\n        returns(address wallet)\r\n    {\r\n        // Create new wallet.\r\n        wallet = address(new Vault(msg.sender, _owner, _unlockDate));\r\n        \r\n        // Add wallet to sender's wallets.\r\n        wallets[msg.sender].push(wallet);\r\n\r\n        // If owner is the same as sender then add wallet to sender's wallets too.\r\n        if(msg.sender != _owner){\r\n            wallets[_owner].push(wallet);\r\n        }\r\n\r\n        // Send ether from this transaction to the created contract.\r\n        payable(wallet).transfer(msg.value);\r\n\r\n        // Emit event.\r\n        emit Created(wallet, msg.sender, _owner, block.timestamp, _unlockDate, msg.value);\r\n    }\r\n\r\n    // Prevents accidental sending of ether to the factory\r\n    fallback () external {\r\n        revert();\r\n    }\r\n\r\n    event Created(address wallet, address from, address to, uint256 createdAt, uint256 unlockDate, uint256 amount);\r\n}",
  "sourcePath": "E:\\Development\\_Personal\\Blockchain\\ico-steinnegen-coin\\contracts\\VaultFactory.sol",
  "compiler": {
    "name": "solc",
    "version": "0.8.11+commit.d7f03943.Emscripten.clang"
  },
  "schemaVersion": "3.4.4",
  "updatedAt": "2022-03-05T21:25:14.232Z",
  "devdoc": {
    "kind": "dev",
    "methods": {},
    "version": 1
  },
  "userdoc": {
    "kind": "user",
    "methods": {},
    "version": 1
  }
}