{
  "contractName": "Vault",
  "abi": [
    {
      "inputs": [
        {
          "internalType": "address",
          "name": "_creator",
          "type": "address"
        },
        {
          "internalType": "address",
          "name": "_owner",
          "type": "address"
        },
        {
          "internalType": "uint256",
          "name": "_unlockDate",
          "type": "uint256"
        }
      ],
      "stateMutability": "nonpayable",
      "type": "constructor"
    },
    {
      "anonymous": false,
      "inputs": [
        {
          "indexed": false,
          "internalType": "address",
          "name": "from",
          "type": "address"
        },
        {
          "indexed": false,
          "internalType": "uint256",
          "name": "amount",
          "type": "uint256"
        }
      ],
      "name": "Received",
      "type": "event"
    },
    {
      "anonymous": false,
      "inputs": [
        {
          "indexed": false,
          "internalType": "address",
          "name": "to",
          "type": "address"
        },
        {
          "indexed": false,
          "internalType": "uint256",
          "name": "amount",
          "type": "uint256"
        }
      ],
      "name": "Withdrew",
      "type": "event"
    },
    {
      "anonymous": false,
      "inputs": [
        {
          "indexed": false,
          "internalType": "address",
          "name": "tokenContract",
          "type": "address"
        },
        {
          "indexed": false,
          "internalType": "address",
          "name": "to",
          "type": "address"
        },
        {
          "indexed": false,
          "internalType": "uint256",
          "name": "amount",
          "type": "uint256"
        }
      ],
      "name": "WithdrewTokens",
      "type": "event"
    },
    {
      "stateMutability": "payable",
      "type": "fallback"
    },
    {
      "inputs": [],
      "name": "createdAt",
      "outputs": [
        {
          "internalType": "uint256",
          "name": "",
          "type": "uint256"
        }
      ],
      "stateMutability": "view",
      "type": "function"
    },
    {
      "inputs": [],
      "name": "creator",
      "outputs": [
        {
          "internalType": "address",
          "name": "",
          "type": "address"
        }
      ],
      "stateMutability": "view",
      "type": "function"
    },
    {
      "inputs": [],
      "name": "owner",
      "outputs": [
        {
          "internalType": "address",
          "name": "",
          "type": "address"
        }
      ],
      "stateMutability": "view",
      "type": "function"
    },
    {
      "inputs": [],
      "name": "startedAt",
      "outputs": [
        {
          "internalType": "uint256",
          "name": "",
          "type": "uint256"
        }
      ],
      "stateMutability": "view",
      "type": "function"
    },
    {
      "inputs": [],
      "name": "unlockDate",
      "outputs": [
        {
          "internalType": "uint256",
          "name": "",
          "type": "uint256"
        }
      ],
      "stateMutability": "view",
      "type": "function"
    },
    {
      "stateMutability": "payable",
      "type": "receive"
    },
    {
      "inputs": [],
      "name": "withdraw",
      "outputs": [],
      "stateMutability": "payable",
      "type": "function"
    },
    {
      "inputs": [
        {
          "internalType": "address",
          "name": "_tokenContract",
          "type": "address"
        }
      ],
      "name": "withdrawTokens",
      "outputs": [],
      "stateMutability": "nonpayable",
      "type": "function"
    },
    {
      "inputs": [],
      "name": "info",
      "outputs": [
        {
          "internalType": "address",
          "name": "",
          "type": "address"
        },
        {
          "internalType": "address",
          "name": "",
          "type": "address"
        },
        {
          "internalType": "uint256",
          "name": "",
          "type": "uint256"
        },
        {
          "internalType": "uint256",
          "name": "",
          "type": "uint256"
        },
        {
          "internalType": "uint256",
          "name": "",
          "type": "uint256"
        }
      ],
      "stateMutability": "view",
      "type": "function"
    },
    {
      "inputs": [],
      "name": "getBalance",
      "outputs": [
        {
          "internalType": "uint256",
          "name": "",
          "type": "uint256"
        }
      ],
      "stateMutability": "view",
      "type": "function"
    }
  ],
  "bytecode": "0x608060405234801561001057600080fd5b506040516109d13803806109d183398181016040528101906100329190610162565b826000806101000a81548173ffffffffffffffffffffffffffffffffffffffff021916908373ffffffffffffffffffffffffffffffffffffffff16021790555081600160006101000a81548173ffffffffffffffffffffffffffffffffffffffff021916908373ffffffffffffffffffffffffffffffffffffffff16021790555080600281905550426003819055505050506101b5565b600080fd5b600073ffffffffffffffffffffffffffffffffffffffff82169050919050565b60006100f9826100ce565b9050919050565b610109816100ee565b811461011457600080fd5b50565b60008151905061012681610100565b92915050565b6000819050919050565b61013f8161012c565b811461014a57600080fd5b50565b60008151905061015c81610136565b92915050565b60008060006060848603121561017b5761017a6100c9565b5b600061018986828701610117565b935050602061019a86828701610117565b92505060406101ab8682870161014d565b9150509250925092565b61080d806101c46000396000f3fe60806040526004361061008a5760003560e01c806349df728c1161005957806349df728c1461012257806369ac57211461014b5780638da5cb5b14610176578063cf09e0d0146101a1578063f21f537d146101cc57610091565b806302d05d3f1461009357806312065fe0146100be578063370158ea146100e95780633ccfd60b1461011857610091565b3661009157005b005b34801561009f57600080fd5b506100a86101f7565b6040516100b591906105b9565b60405180910390f35b3480156100ca57600080fd5b506100d361021b565b6040516100e091906105ed565b60405180910390f35b3480156100f557600080fd5b506100fe610223565b60405161010f959493929190610608565b60405180910390f35b610120610288565b005b34801561012e57600080fd5b506101496004803603810190610144919061068c565b610373565b005b34801561015757600080fd5b50610160610540565b60405161016d91906105ed565b60405180910390f35b34801561018257600080fd5b5061018b610546565b60405161019891906105b9565b60405180910390f35b3480156101ad57600080fd5b506101b661056c565b6040516101c391906105ed565b60405180910390f35b3480156101d857600080fd5b506101e1610572565b6040516101ee91906105ed565b60405180910390f35b60008054906101000a900473ffffffffffffffffffffffffffffffffffffffff1681565b600047905090565b60008060008060008060009054906101000a900473ffffffffffffffffffffffffffffffffffffffff16600160009054906101000a900473ffffffffffffffffffffffffffffffffffffffff1660025460035447945094509450945094509091929394565b600160009054906101000a900473ffffffffffffffffffffffffffffffffffffffff1673ffffffffffffffffffffffffffffffffffffffff163373ffffffffffffffffffffffffffffffffffffffff16146102e257600080fd5b6002544210156102f157600080fd5b3373ffffffffffffffffffffffffffffffffffffffff166108fc479081150290604051600060405180830381858888f19350505050158015610337573d6000803e3d6000fd5b507fb244b9a17ad633c6e83b7983ee04320484956a68ddbe96a0b70dfca1cf19d72333476040516103699291906106b9565b60405180910390a1565b600160009054906101000a900473ffffffffffffffffffffffffffffffffffffffff1673ffffffffffffffffffffffffffffffffffffffff163373ffffffffffffffffffffffffffffffffffffffff16146103cd57600080fd5b6002544210156103dc57600080fd5b600081905060008173ffffffffffffffffffffffffffffffffffffffff166370a08231306040518263ffffffff1660e01b815260040161041c91906105b9565b602060405180830381865afa158015610439573d6000803e3d6000fd5b505050506040513d601f19601f8201168201806040525081019061045d919061070e565b90508173ffffffffffffffffffffffffffffffffffffffff1663a9059cbb600160009054906101000a900473ffffffffffffffffffffffffffffffffffffffff16836040518363ffffffff1660e01b81526004016104bc9291906106b9565b6020604051808303816000875af11580156104db573d6000803e3d6000fd5b505050506040513d601f19601f820116820180604052508101906104ff9190610773565b507fa04c965e7d289704527a948915777d68bb4530fb4b08aa935fb958c0b7901ab9833383604051610533939291906107a0565b60405180910390a1505050565b60025481565b600160009054906101000a900473ffffffffffffffffffffffffffffffffffffffff1681565b60035481565b60045481565b600073ffffffffffffffffffffffffffffffffffffffff82169050919050565b60006105a382610578565b9050919050565b6105b381610598565b82525050565b60006020820190506105ce60008301846105aa565b92915050565b6000819050919050565b6105e7816105d4565b82525050565b600060208201905061060260008301846105de565b92915050565b600060a08201905061061d60008301886105aa565b61062a60208301876105aa565b61063760408301866105de565b61064460608301856105de565b61065160808301846105de565b9695505050505050565b600080fd5b61066981610598565b811461067457600080fd5b50565b60008135905061068681610660565b92915050565b6000602082840312156106a2576106a161065b565b5b60006106b084828501610677565b91505092915050565b60006040820190506106ce60008301856105aa565b6106db60208301846105de565b9392505050565b6106eb816105d4565b81146106f657600080fd5b50565b600081519050610708816106e2565b92915050565b6000602082840312156107245761072361065b565b5b6000610732848285016106f9565b91505092915050565b60008115159050919050565b6107508161073b565b811461075b57600080fd5b50565b60008151905061076d81610747565b92915050565b6000602082840312156107895761078861065b565b5b60006107978482850161075e565b91505092915050565b60006060820190506107b560008301866105aa565b6107c260208301856105aa565b6107cf60408301846105de565b94935050505056fea26469706673582212203d493eacb06d01873ffbf2168296b4f0e899fff0329f5d918f1cc7b6df65ba2964736f6c634300080b0033",
  "immutableReferences": {},
  "source": "// SPDX-License-Identifier: MIT\r\npragma solidity >=0.4.22 <0.9.0;\r\nimport \"openzeppelin-solidity/contracts/token/ERC20/ERC20.sol\";\r\n\r\ncontract Vault {\r\n    address public creator;\r\n    address public owner;\r\n    uint256 public unlockDate;\r\n    uint256 public createdAt;\r\n    uint256 public startedAt;\r\n\r\n    \r\n    event Received(address from, uint256 amount);\r\n    event Withdrew(address to, uint256 amount);\r\n    event WithdrewTokens(address tokenContract, address to, uint256 amount);\r\n\r\n    modifier onlyOwner() {\r\n        require(msg.sender == owner);\r\n        _;\r\n    }\r\n\r\n    constructor(\r\n        address _creator,\r\n        address _owner,\r\n        uint256 _unlockDate\r\n    ) {\r\n        creator = _creator;\r\n        owner = _owner;\r\n        unlockDate = _unlockDate;\r\n        createdAt = block.timestamp;\r\n    }\r\n\r\n     // callable by owner only, after specified time\r\n    function withdraw() onlyOwner public payable {\r\n       require(block.timestamp >= unlockDate);\r\n       //now send all the balance\r\n       payable(msg.sender).transfer(address(this).balance);\r\n       emit Withdrew(msg.sender, address(this).balance);\r\n    }\r\n\r\n    // callable by owner only, after specified time, only for Tokens implementing ERC20\r\n    function withdrawTokens(address _tokenContract) onlyOwner public {\r\n       require(block.timestamp >= unlockDate);\r\n       ERC20 token = ERC20(_tokenContract);\r\n       //now send all the token balance\r\n       uint256 tokenBalance = token.balanceOf(address(this));\r\n       token.transfer(owner, tokenBalance);\r\n       emit WithdrewTokens(_tokenContract, msg.sender, tokenBalance);\r\n    }\r\n\r\n    function info() public view returns(address, address, uint256, uint256, uint256) {\r\n        return (creator, owner, unlockDate, createdAt,  address(this).balance);\r\n    }\r\n\r\n    receive() external payable {}\r\n\r\n    // Fallback function is called when msg.data is not empty\r\n    fallback() external payable {}\r\n\r\n    function getBalance() public view returns (uint) {\r\n        return address(this).balance;\r\n    }\r\n\r\n}\r\n",
  "sourcePath": "E:\\Development\\_Personal\\Blockchain\\ico-steinnegen-coin\\contracts\\Vault.sol",
  "compiler": {
    "name": "solc",
    "version": "0.8.11+commit.d7f03943.Emscripten.clang"
  },
  "schemaVersion": "3.4.4",
  "updatedAt": "2022-03-07T19:07:43.221Z",
  "devdoc": {
    "kind": "dev",
    "methods": {},
    "version": 1
  },
  "userdoc": {
    "kind": "user",
    "methods": {},
    "version": 1
  }
}