{
  "contractName": "VaultFactory",
  "abi": [
    {
      "anonymous": false,
      "inputs": [
        {
          "indexed": false,
          "internalType": "address",
          "name": "wallet",
          "type": "address"
        },
        {
          "indexed": false,
          "internalType": "address",
          "name": "from",
          "type": "address"
        },
        {
          "indexed": false,
          "internalType": "address",
          "name": "to",
          "type": "address"
        },
        {
          "indexed": false,
          "internalType": "uint256",
          "name": "createdAt",
          "type": "uint256"
        },
        {
          "indexed": false,
          "internalType": "uint256",
          "name": "unlockDate",
          "type": "uint256"
        },
        {
          "indexed": false,
          "internalType": "uint256",
          "name": "amount",
          "type": "uint256"
        }
      ],
      "name": "Created",
      "type": "event"
    },
    {
      "stateMutability": "nonpayable",
      "type": "fallback"
    },
    {
      "inputs": [],
      "name": "wallet",
      "outputs": [
        {
          "internalType": "address",
          "name": "",
          "type": "address"
        }
      ],
      "stateMutability": "view",
      "type": "function"
    },
    {
      "inputs": [
        {
          "internalType": "address",
          "name": "_user",
          "type": "address"
        }
      ],
      "name": "getWallets",
      "outputs": [
        {
          "internalType": "address[]",
          "name": "",
          "type": "address[]"
        }
      ],
      "stateMutability": "view",
      "type": "function"
    },
    {
      "inputs": [
        {
          "internalType": "address",
          "name": "_owner",
          "type": "address"
        },
        {
          "internalType": "uint256",
          "name": "_unlockDate",
          "type": "uint256"
        }
      ],
      "name": "newVault",
      "outputs": [
        {
          "internalType": "contract Vault",
          "name": "vault",
          "type": "address"
        }
      ],
      "stateMutability": "payable",
      "type": "function"
    }
  ],
  "bytecode": "0x608060405234801561001057600080fd5b506118a9806100206000396000f3fe6080604052600436106200003d5760003560e01c80632eeabd8f1462000051578063422c29a41462000087578063521eb27314620000cb576200003e565b5b3480156200004b57600080fd5b50600080fd5b6200006f6004803603810190620000699190620005b0565b620000fb565b6040516200007e919062000662565b60405180910390f35b3480156200009457600080fd5b50620000b36004803603810190620000ad91906200067f565b62000409565b604051620000c291906200077f565b60405180910390f35b348015620000d857600080fd5b50620000e3620004d7565b604051620000f29190620007b4565b60405180910390f35b60003383836040516200010e90620004fd565b6200011c9392919062000843565b604051809103906000f08015801562000139573d6000803e3d6000fd5b50905080600160006101000a81548173ffffffffffffffffffffffffffffffffffffffff021916908373ffffffffffffffffffffffffffffffffffffffff1602179055506000803373ffffffffffffffffffffffffffffffffffffffff1673ffffffffffffffffffffffffffffffffffffffff168152602001908152602001600020600160009054906101000a900473ffffffffffffffffffffffffffffffffffffffff169080600181540180825580915050600190039060005260206000200160009091909190916101000a81548173ffffffffffffffffffffffffffffffffffffffff021916908373ffffffffffffffffffffffffffffffffffffffff1602179055508273ffffffffffffffffffffffffffffffffffffffff163373ffffffffffffffffffffffffffffffffffffffff161462000334576000808473ffffffffffffffffffffffffffffffffffffffff1673ffffffffffffffffffffffffffffffffffffffff168152602001908152602001600020600160009054906101000a900473ffffffffffffffffffffffffffffffffffffffff169080600181540180825580915050600190039060005260206000200160009091909190916101000a81548173ffffffffffffffffffffffffffffffffffffffff021916908373ffffffffffffffffffffffffffffffffffffffff1602179055505b600160009054906101000a900473ffffffffffffffffffffffffffffffffffffffff1673ffffffffffffffffffffffffffffffffffffffff166108fc349081150290604051600060405180830381858888f193505050501580156200039d573d6000803e3d6000fd5b507f14d5db8c1f746c7adcbcd13cf8945dd2ac6ad58be52380b8c4933c876f76e1bf600160009054906101000a900473ffffffffffffffffffffffffffffffffffffffff163385428634604051620003fb9695949392919062000895565b60405180910390a192915050565b60606000808373ffffffffffffffffffffffffffffffffffffffff1673ffffffffffffffffffffffffffffffffffffffff168152602001908152602001600020805480602002602001604051908101604052809291908181526020018280548015620004cb57602002820191906000526020600020905b8160009054906101000a900473ffffffffffffffffffffffffffffffffffffffff1673ffffffffffffffffffffffffffffffffffffffff168152602001906001019080831162000480575b50505050509050919050565b600160009054906101000a900473ffffffffffffffffffffffffffffffffffffffff1681565b610f71806200090383390190565b600080fd5b600073ffffffffffffffffffffffffffffffffffffffff82169050919050565b60006200053d8262000510565b9050919050565b6200054f8162000530565b81146200055b57600080fd5b50565b6000813590506200056f8162000544565b92915050565b6000819050919050565b6200058a8162000575565b81146200059657600080fd5b50565b600081359050620005aa816200057f565b92915050565b60008060408385031215620005ca57620005c96200050b565b5b6000620005da858286016200055e565b9250506020620005ed8582860162000599565b9150509250929050565b6000819050919050565b6000620006226200061c620006168462000510565b620005f7565b62000510565b9050919050565b6000620006368262000601565b9050919050565b60006200064a8262000629565b9050919050565b6200065c816200063d565b82525050565b600060208201905062000679600083018462000651565b92915050565b6000602082840312156200069857620006976200050b565b5b6000620006a8848285016200055e565b91505092915050565b600081519050919050565b600082825260208201905092915050565b6000819050602082019050919050565b620006e88162000530565b82525050565b6000620006fc8383620006dd565b60208301905092915050565b6000602082019050919050565b60006200072282620006b1565b6200072e8185620006bc565b93506200073b83620006cd565b8060005b8381101562000772578151620007568882620006ee565b9750620007638362000708565b9250506001810190506200073f565b5085935050505092915050565b600060208201905081810360008301526200079b818462000715565b905092915050565b620007ae8162000530565b82525050565b6000602082019050620007cb6000830184620007a3565b92915050565b600082825260208201905092915050565b7f64656661756c7400000000000000000000000000000000000000000000000000600082015250565b60006200081a600783620007d1565b91506200082782620007e2565b602082019050919050565b6200083d8162000575565b82525050565b600060808201905081810360008301526200085e816200080b565b90506200086f6020830186620007a3565b6200087e6040830185620007a3565b6200088d606083018462000832565b949350505050565b600060c082019050620008ac6000830189620007a3565b620008bb6020830188620007a3565b620008ca6040830187620007a3565b620008d9606083018662000832565b620008e8608083018562000832565b620008f760a083018462000832565b97965050505050505056fe60806040523480156200001157600080fd5b5060405162000f7138038062000f718339818101604052810190620000379190620003d6565b826000806101000a81548173ffffffffffffffffffffffffffffffffffffffff021916908373ffffffffffffffffffffffffffffffffffffffff16021790555083600190805190602001906200008f929190620000e9565b5081600260006101000a81548173ffffffffffffffffffffffffffffffffffffffff021916908373ffffffffffffffffffffffffffffffffffffffff160217905550806003819055504260048190555050505050620004cc565b828054620000f79062000496565b90600052602060002090601f0160209004810192826200011b576000855562000167565b82601f106200013657805160ff191683800117855562000167565b8280016001018555821562000167579182015b828111156200016657825182559160200191906001019062000149565b5b5090506200017691906200017a565b5090565b5b80821115620001955760008160009055506001016200017b565b5090565b6000604051905090565b600080fd5b600080fd5b600080fd5b600080fd5b6000601f19601f8301169050919050565b7f4e487b7100000000000000000000000000000000000000000000000000000000600052604160045260246000fd5b6200020282620001b7565b810181811067ffffffffffffffff82111715620002245762000223620001c8565b5b80604052505050565b60006200023962000199565b9050620002478282620001f7565b919050565b600067ffffffffffffffff8211156200026a5762000269620001c8565b5b6200027582620001b7565b9050602081019050919050565b60005b83811015620002a257808201518184015260208101905062000285565b83811115620002b2576000848401525b50505050565b6000620002cf620002c9846200024c565b6200022d565b905082815260208101848484011115620002ee57620002ed620001b2565b5b620002fb84828562000282565b509392505050565b600082601f8301126200031b576200031a620001ad565b5b81516200032d848260208601620002b8565b91505092915050565b600073ffffffffffffffffffffffffffffffffffffffff82169050919050565b6000620003638262000336565b9050919050565b620003758162000356565b81146200038157600080fd5b50565b60008151905062000395816200036a565b92915050565b6000819050919050565b620003b0816200039b565b8114620003bc57600080fd5b50565b600081519050620003d081620003a5565b92915050565b60008060008060808587031215620003f357620003f2620001a3565b5b600085015167ffffffffffffffff811115620004145762000413620001a8565b5b620004228782880162000303565b9450506020620004358782880162000384565b9350506040620004488782880162000384565b92505060606200045b87828801620003bf565b91505092959194509250565b7f4e487b7100000000000000000000000000000000000000000000000000000000600052602260045260246000fd5b60006002820490506001821680620004af57607f821691505b60208210811415620004c657620004c562000467565b5b50919050565b610a9580620004dc6000396000f3fe6080604052600436106100955760003560e01c806349df728c1161005957806349df728c1461015957806369ac5721146101825780638da5cb5b146101ad578063cf09e0d0146101d8578063f21f537d146102035761009c565b806302d05d3f1461009e57806306fdde03146100c957806312065fe0146100f4578063370158ea1461011f5780633ccfd60b1461014f5761009c565b3661009c57005b005b3480156100aa57600080fd5b506100b361022e565b6040516100c09190610710565b60405180910390f35b3480156100d557600080fd5b506100de610252565b6040516100eb91906107c4565b60405180910390f35b34801561010057600080fd5b506101096102e0565b60405161011691906107ff565b60405180910390f35b34801561012b57600080fd5b506101346102e8565b6040516101469695949392919061081a565b60405180910390f35b6101576103df565b005b34801561016557600080fd5b50610180600480360381019061017b91906108b3565b6104ca565b005b34801561018e57600080fd5b50610197610697565b6040516101a491906107ff565b60405180910390f35b3480156101b957600080fd5b506101c261069d565b6040516101cf9190610710565b60405180910390f35b3480156101e457600080fd5b506101ed6106c3565b6040516101fa91906107ff565b60405180910390f35b34801561020f57600080fd5b506102186106c9565b60405161022591906107ff565b60405180910390f35b60008054906101000a900473ffffffffffffffffffffffffffffffffffffffff1681565b6001805461025f9061090f565b80601f016020809104026020016040519081016040528092919081815260200182805461028b9061090f565b80156102d85780601f106102ad576101008083540402835291602001916102d8565b820191906000526020600020905b8154815290600101906020018083116102bb57829003601f168201915b505050505081565b600047905090565b60606000806000806000600160008054906101000a900473ffffffffffffffffffffffffffffffffffffffff16600260009054906101000a900473ffffffffffffffffffffffffffffffffffffffff166003546004544785805461034b9061090f565b80601f01602080910402602001604051908101604052809291908181526020018280546103779061090f565b80156103c45780601f10610399576101008083540402835291602001916103c4565b820191906000526020600020905b8154815290600101906020018083116103a757829003601f168201915b50505050509550955095509550955095509550909192939495565b600260009054906101000a900473ffffffffffffffffffffffffffffffffffffffff1673ffffffffffffffffffffffffffffffffffffffff163373ffffffffffffffffffffffffffffffffffffffff161461043957600080fd5b60035442101561044857600080fd5b3373ffffffffffffffffffffffffffffffffffffffff166108fc479081150290604051600060405180830381858888f1935050505015801561048e573d6000803e3d6000fd5b507fb244b9a17ad633c6e83b7983ee04320484956a68ddbe96a0b70dfca1cf19d72333476040516104c0929190610941565b60405180910390a1565b600260009054906101000a900473ffffffffffffffffffffffffffffffffffffffff1673ffffffffffffffffffffffffffffffffffffffff163373ffffffffffffffffffffffffffffffffffffffff161461052457600080fd5b60035442101561053357600080fd5b600081905060008173ffffffffffffffffffffffffffffffffffffffff166370a08231306040518263ffffffff1660e01b81526004016105739190610710565b602060405180830381865afa158015610590573d6000803e3d6000fd5b505050506040513d601f19601f820116820180604052508101906105b49190610996565b90508173ffffffffffffffffffffffffffffffffffffffff1663a9059cbb600260009054906101000a900473ffffffffffffffffffffffffffffffffffffffff16836040518363ffffffff1660e01b8152600401610613929190610941565b6020604051808303816000875af1158015610632573d6000803e3d6000fd5b505050506040513d601f19601f8201168201806040525081019061065691906109fb565b507fa04c965e7d289704527a948915777d68bb4530fb4b08aa935fb958c0b7901ab983338360405161068a93929190610a28565b60405180910390a1505050565b60035481565b600260009054906101000a900473ffffffffffffffffffffffffffffffffffffffff1681565b60045481565b60055481565b600073ffffffffffffffffffffffffffffffffffffffff82169050919050565b60006106fa826106cf565b9050919050565b61070a816106ef565b82525050565b60006020820190506107256000830184610701565b92915050565b600081519050919050565b600082825260208201905092915050565b60005b8381101561076557808201518184015260208101905061074a565b83811115610774576000848401525b50505050565b6000601f19601f8301169050919050565b60006107968261072b565b6107a08185610736565b93506107b0818560208601610747565b6107b98161077a565b840191505092915050565b600060208201905081810360008301526107de818461078b565b905092915050565b6000819050919050565b6107f9816107e6565b82525050565b600060208201905061081460008301846107f0565b92915050565b600060c0820190508181036000830152610834818961078b565b90506108436020830188610701565b6108506040830187610701565b61085d60608301866107f0565b61086a60808301856107f0565b61087760a08301846107f0565b979650505050505050565b600080fd5b610890816106ef565b811461089b57600080fd5b50565b6000813590506108ad81610887565b92915050565b6000602082840312156108c9576108c8610882565b5b60006108d78482850161089e565b91505092915050565b7f4e487b7100000000000000000000000000000000000000000000000000000000600052602260045260246000fd5b6000600282049050600182168061092757607f821691505b6020821081141561093b5761093a6108e0565b5b50919050565b60006040820190506109566000830185610701565b61096360208301846107f0565b9392505050565b610973816107e6565b811461097e57600080fd5b50565b6000815190506109908161096a565b92915050565b6000602082840312156109ac576109ab610882565b5b60006109ba84828501610981565b91505092915050565b60008115159050919050565b6109d8816109c3565b81146109e357600080fd5b50565b6000815190506109f5816109cf565b92915050565b600060208284031215610a1157610a10610882565b5b6000610a1f848285016109e6565b91505092915050565b6000606082019050610a3d6000830186610701565b610a4a6020830185610701565b610a5760408301846107f0565b94935050505056fea2646970667358221220f7f4afb62a4584956dc380b3b0c146c828cefd39436a2a85b586a0cb1bdc2f1464736f6c634300080b0033a2646970667358221220cfcbbef6cf726090acf0e8cc12fbd2f2ef246172f1ad8aa3a7febd6fc6b3b88664736f6c634300080b0033",
  "immutableReferences": {},
  "source": "// SPDX-License-Identifier: MIT\r\npragma solidity >=0.4.22 <0.9.0;\r\nimport \"./Vault.sol\";\r\n\r\ncontract VaultFactory {\r\n \r\n    mapping(address => address[]) wallets;\r\n\r\n    address public wallet;\r\n\r\n    function getWallets(address _user) \r\n        public\r\n        view\r\n        returns(address[] memory)\r\n    {\r\n        return wallets[_user];\r\n    }\r\n\r\n    function newVault(address _owner, uint256 _unlockDate)\r\n        payable\r\n        public\r\n        returns(Vault vault)\r\n    {\r\n        // Create new wallet.\r\n        vault = new Vault('default', msg.sender, _owner, _unlockDate);\r\n        wallet = address(vault);\r\n        \r\n        // Add wallet to sender's wallets.\r\n        wallets[msg.sender].push(wallet);\r\n\r\n        // If owner is the same as sender then add wallet to sender's wallets too.\r\n        if(msg.sender != _owner){\r\n            wallets[_owner].push(wallet);\r\n        }\r\n\r\n        // Send ether from this transaction to the created contract.\r\n        payable(wallet).transfer(msg.value);\r\n\r\n        // Emit event.\r\n        emit Created(wallet, msg.sender, _owner, block.timestamp, _unlockDate, msg.value);\r\n\r\n        return vault;\r\n    }\r\n\r\n    // Prevents accidental sending of ether to the factory\r\n    fallback () external {\r\n        revert();\r\n    }\r\n\r\n    event Created(address wallet, address from, address to, uint256 createdAt, uint256 unlockDate, uint256 amount);\r\n}",
  "sourcePath": "E:\\Development\\_Personal\\Blockchain\\ico-steinnegen-coin\\contracts\\VaultFactory.sol",
  "compiler": {
    "name": "solc",
    "version": "0.8.11+commit.d7f03943.Emscripten.clang"
  },
  "schemaVersion": "3.4.4",
  "updatedAt": "2022-03-08T11:46:00.036Z",
  "devdoc": {
    "kind": "dev",
    "methods": {},
    "version": 1
  },
  "userdoc": {
    "kind": "user",
    "methods": {},
    "version": 1
  }
}