{
  "contractName": "VaultFactory",
  "abi": [
    {
      "anonymous": false,
      "inputs": [
        {
          "indexed": false,
          "internalType": "address",
          "name": "wallet",
          "type": "address"
        },
        {
          "indexed": false,
          "internalType": "address",
          "name": "from",
          "type": "address"
        },
        {
          "indexed": false,
          "internalType": "address",
          "name": "to",
          "type": "address"
        },
        {
          "indexed": false,
          "internalType": "uint256",
          "name": "createdAt",
          "type": "uint256"
        },
        {
          "indexed": false,
          "internalType": "uint256",
          "name": "unlockDate",
          "type": "uint256"
        },
        {
          "indexed": false,
          "internalType": "uint256",
          "name": "amount",
          "type": "uint256"
        }
      ],
      "name": "Created",
      "type": "event"
    },
    {
      "stateMutability": "nonpayable",
      "type": "fallback"
    },
    {
      "inputs": [],
      "name": "wallet",
      "outputs": [
        {
          "internalType": "address",
          "name": "",
          "type": "address"
        }
      ],
      "stateMutability": "view",
      "type": "function",
      "constant": true
    },
    {
      "inputs": [
        {
          "internalType": "address",
          "name": "_user",
          "type": "address"
        }
      ],
      "name": "getWallets",
      "outputs": [
        {
          "internalType": "address[]",
          "name": "",
          "type": "address[]"
        }
      ],
      "stateMutability": "view",
      "type": "function",
      "constant": true
    },
    {
      "inputs": [
        {
          "internalType": "address",
          "name": "_owner",
          "type": "address"
        },
        {
          "internalType": "uint256",
          "name": "_unlockDate",
          "type": "uint256"
        }
      ],
      "name": "newVault",
      "outputs": [
        {
          "internalType": "contract Vault",
          "name": "vault",
          "type": "address"
        }
      ],
      "stateMutability": "payable",
      "type": "function",
      "payable": true
    }
  ],
  "bytecode": "0x608060405234801561001057600080fd5b50611bd8806100206000396000f3fe6080604052600436106200003d5760003560e01c80632eeabd8f1462000051578063422c29a41462000087578063521eb27314620000cb576200003e565b5b3480156200004b57600080fd5b50600080fd5b6200006f6004803603810190620000699190620005b0565b620000fb565b6040516200007e919062000662565b60405180910390f35b3480156200009457600080fd5b50620000b36004803603810190620000ad91906200067f565b62000409565b604051620000c291906200077f565b60405180910390f35b348015620000d857600080fd5b50620000e3620004d7565b604051620000f29190620007b4565b60405180910390f35b60003383836040516200010e90620004fd565b6200011c9392919062000843565b604051809103906000f08015801562000139573d6000803e3d6000fd5b50905080600160006101000a81548173ffffffffffffffffffffffffffffffffffffffff021916908373ffffffffffffffffffffffffffffffffffffffff1602179055506000803373ffffffffffffffffffffffffffffffffffffffff1673ffffffffffffffffffffffffffffffffffffffff168152602001908152602001600020600160009054906101000a900473ffffffffffffffffffffffffffffffffffffffff169080600181540180825580915050600190039060005260206000200160009091909190916101000a81548173ffffffffffffffffffffffffffffffffffffffff021916908373ffffffffffffffffffffffffffffffffffffffff1602179055508273ffffffffffffffffffffffffffffffffffffffff163373ffffffffffffffffffffffffffffffffffffffff161462000334576000808473ffffffffffffffffffffffffffffffffffffffff1673ffffffffffffffffffffffffffffffffffffffff168152602001908152602001600020600160009054906101000a900473ffffffffffffffffffffffffffffffffffffffff169080600181540180825580915050600190039060005260206000200160009091909190916101000a81548173ffffffffffffffffffffffffffffffffffffffff021916908373ffffffffffffffffffffffffffffffffffffffff1602179055505b600160009054906101000a900473ffffffffffffffffffffffffffffffffffffffff1673ffffffffffffffffffffffffffffffffffffffff166108fc349081150290604051600060405180830381858888f193505050501580156200039d573d6000803e3d6000fd5b507f14d5db8c1f746c7adcbcd13cf8945dd2ac6ad58be52380b8c4933c876f76e1bf600160009054906101000a900473ffffffffffffffffffffffffffffffffffffffff163385428634604051620003fb9695949392919062000895565b60405180910390a192915050565b60606000808373ffffffffffffffffffffffffffffffffffffffff1673ffffffffffffffffffffffffffffffffffffffff168152602001908152602001600020805480602002602001604051908101604052809291908181526020018280548015620004cb57602002820191906000526020600020905b8160009054906101000a900473ffffffffffffffffffffffffffffffffffffffff1673ffffffffffffffffffffffffffffffffffffffff168152602001906001019080831162000480575b50505050509050919050565b600160009054906101000a900473ffffffffffffffffffffffffffffffffffffffff1681565b6112a0806200090383390190565b600080fd5b600073ffffffffffffffffffffffffffffffffffffffff82169050919050565b60006200053d8262000510565b9050919050565b6200054f8162000530565b81146200055b57600080fd5b50565b6000813590506200056f8162000544565b92915050565b6000819050919050565b6200058a8162000575565b81146200059657600080fd5b50565b600081359050620005aa816200057f565b92915050565b60008060408385031215620005ca57620005c96200050b565b5b6000620005da858286016200055e565b9250506020620005ed8582860162000599565b9150509250929050565b6000819050919050565b6000620006226200061c620006168462000510565b620005f7565b62000510565b9050919050565b6000620006368262000601565b9050919050565b60006200064a8262000629565b9050919050565b6200065c816200063d565b82525050565b600060208201905062000679600083018462000651565b92915050565b6000602082840312156200069857620006976200050b565b5b6000620006a8848285016200055e565b91505092915050565b600081519050919050565b600082825260208201905092915050565b6000819050602082019050919050565b620006e88162000530565b82525050565b6000620006fc8383620006dd565b60208301905092915050565b6000602082019050919050565b60006200072282620006b1565b6200072e8185620006bc565b93506200073b83620006cd565b8060005b8381101562000772578151620007568882620006ee565b9750620007638362000708565b9250506001810190506200073f565b5085935050505092915050565b600060208201905081810360008301526200079b818462000715565b905092915050565b620007ae8162000530565b82525050565b6000602082019050620007cb6000830184620007a3565b92915050565b600082825260208201905092915050565b7f64656661756c7400000000000000000000000000000000000000000000000000600082015250565b60006200081a600783620007d1565b91506200082782620007e2565b602082019050919050565b6200083d8162000575565b82525050565b600060808201905081810360008301526200085e816200080b565b90506200086f6020830186620007a3565b6200087e6040830185620007a3565b6200088d606083018462000832565b949350505050565b600060c082019050620008ac6000830189620007a3565b620008bb6020830188620007a3565b620008ca6040830187620007a3565b620008d9606083018662000832565b620008e8608083018562000832565b620008f760a083018462000832565b97965050505050505056fe60806040523480156200001157600080fd5b50604051620012a0380380620012a083398181016040528101906200003791906200041b565b826000806101000a81548173ffffffffffffffffffffffffffffffffffffffff021916908373ffffffffffffffffffffffffffffffffffffffff16021790555083600190805190602001906200008f9291906200012e565b5081600260006101000a81548173ffffffffffffffffffffffffffffffffffffffff021916908373ffffffffffffffffffffffffffffffffffffffff16021790555080600381905550426004819055506000600760003073ffffffffffffffffffffffffffffffffffffffff1673ffffffffffffffffffffffffffffffffffffffff168152602001908152602001600020819055505050505062000511565b8280546200013c90620004db565b90600052602060002090601f016020900481019282620001605760008555620001ac565b82601f106200017b57805160ff1916838001178555620001ac565b82800160010185558215620001ac579182015b82811115620001ab5782518255916020019190600101906200018e565b5b509050620001bb9190620001bf565b5090565b5b80821115620001da576000816000905550600101620001c0565b5090565b6000604051905090565b600080fd5b600080fd5b600080fd5b600080fd5b6000601f19601f8301169050919050565b7f4e487b7100000000000000000000000000000000000000000000000000000000600052604160045260246000fd5b6200024782620001fc565b810181811067ffffffffffffffff821117156200026957620002686200020d565b5b80604052505050565b60006200027e620001de565b90506200028c82826200023c565b919050565b600067ffffffffffffffff821115620002af57620002ae6200020d565b5b620002ba82620001fc565b9050602081019050919050565b60005b83811015620002e7578082015181840152602081019050620002ca565b83811115620002f7576000848401525b50505050565b6000620003146200030e8462000291565b62000272565b905082815260208101848484011115620003335762000332620001f7565b5b62000340848285620002c7565b509392505050565b600082601f83011262000360576200035f620001f2565b5b815162000372848260208601620002fd565b91505092915050565b600073ffffffffffffffffffffffffffffffffffffffff82169050919050565b6000620003a8826200037b565b9050919050565b620003ba816200039b565b8114620003c657600080fd5b50565b600081519050620003da81620003af565b92915050565b6000819050919050565b620003f581620003e0565b81146200040157600080fd5b50565b6000815190506200041581620003ea565b92915050565b60008060008060808587031215620004385762000437620001e8565b5b600085015167ffffffffffffffff811115620004595762000458620001ed565b5b620004678782880162000348565b94505060206200047a87828801620003c9565b93505060406200048d87828801620003c9565b9250506060620004a08782880162000404565b91505092959194509250565b7f4e487b7100000000000000000000000000000000000000000000000000000000600052602260045260246000fd5b60006002820490506001821680620004f457607f821691505b602082108114156200050b576200050a620004ac565b5b50919050565b610d7f80620005216000396000f3fe6080604052600436106100c65760003560e01c806349df728c1161007f57806370a082311161005957806370a08231146102465780638da5cb5b14610283578063cf09e0d0146102ae578063f21f537d146102d9576100cd565b806349df728c146101c75780634f763db6146101f057806369ac57211461021b576100cd565b806302d05d3f146100cf5780630ace9ca0146100fa57806312065fe01461012557806312514bba14610150578063370158ea1461018d5780633ccfd60b146101bd576100cd565b366100cd57005b005b3480156100db57600080fd5b506100e4610304565b6040516100f19190610909565b60405180910390f35b34801561010657600080fd5b5061010f610328565b60405161011c91906109bd565b60405180910390f35b34801561013157600080fd5b5061013a6103b6565b60405161014791906109f8565b60405180910390f35b34801561015c57600080fd5b5061017760048036038101906101729190610a44565b6103be565b6040516101849190610a8c565b60405180910390f35b34801561019957600080fd5b506101a2610484565b6040516101b496959493929190610aa7565b60405180910390f35b6101c56105ba565b005b3480156101d357600080fd5b506101ee60048036038101906101e99190610b3b565b6106a5565b005b3480156101fc57600080fd5b50610205610872565b60405161021291906109f8565b60405180910390f35b34801561022757600080fd5b50610230610878565b60405161023d91906109f8565b60405180910390f35b34801561025257600080fd5b5061026d60048036038101906102689190610b3b565b61087e565b60405161027a91906109f8565b60405180910390f35b34801561028f57600080fd5b50610298610896565b6040516102a59190610909565b60405180910390f35b3480156102ba57600080fd5b506102c36108bc565b6040516102d091906109f8565b60405180910390f35b3480156102e557600080fd5b506102ee6108c2565b6040516102fb91906109f8565b60405180910390f35b60008054906101000a900473ffffffffffffffffffffffffffffffffffffffff1681565b6001805461033590610b97565b80601f016020809104026020016040519081016040528092919081815260200182805461036190610b97565b80156103ae5780601f10610383576101008083540402835291602001916103ae565b820191906000526020600020905b81548152906001019060200180831161039157829003601f168201915b505050505081565b600047905090565b600081600760003073ffffffffffffffffffffffffffffffffffffffff1673ffffffffffffffffffffffffffffffffffffffff168152602001908152602001600020600082825461040f9190610bf8565b925050819055503073ffffffffffffffffffffffffffffffffffffffff163373ffffffffffffffffffffffffffffffffffffffff167fddf252ad1be2c89b69c2b068fc378daa952ba7f163c4a11628f55a4df523b3ef8460405161047391906109f8565b60405180910390a360019050919050565b60606000806000806000600160008054906101000a900473ffffffffffffffffffffffffffffffffffffffff16600260009054906101000a900473ffffffffffffffffffffffffffffffffffffffff16600354600454600760003073ffffffffffffffffffffffffffffffffffffffff1673ffffffffffffffffffffffffffffffffffffffff1681526020019081526020016000205485805461052690610b97565b80601f016020809104026020016040519081016040528092919081815260200182805461055290610b97565b801561059f5780601f106105745761010080835404028352916020019161059f565b820191906000526020600020905b81548152906001019060200180831161058257829003601f168201915b50505050509550955095509550955095509550909192939495565b600260009054906101000a900473ffffffffffffffffffffffffffffffffffffffff1673ffffffffffffffffffffffffffffffffffffffff163373ffffffffffffffffffffffffffffffffffffffff161461061457600080fd5b60035442101561062357600080fd5b3373ffffffffffffffffffffffffffffffffffffffff166108fc479081150290604051600060405180830381858888f19350505050158015610669573d6000803e3d6000fd5b507fb244b9a17ad633c6e83b7983ee04320484956a68ddbe96a0b70dfca1cf19d723334760405161069b929190610c4e565b60405180910390a1565b600260009054906101000a900473ffffffffffffffffffffffffffffffffffffffff1673ffffffffffffffffffffffffffffffffffffffff163373ffffffffffffffffffffffffffffffffffffffff16146106ff57600080fd5b60035442101561070e57600080fd5b600081905060008173ffffffffffffffffffffffffffffffffffffffff166370a08231306040518263ffffffff1660e01b815260040161074e9190610909565b602060405180830381865afa15801561076b573d6000803e3d6000fd5b505050506040513d601f19601f8201168201806040525081019061078f9190610c8c565b90508173ffffffffffffffffffffffffffffffffffffffff1663a9059cbb600260009054906101000a900473ffffffffffffffffffffffffffffffffffffffff16836040518363ffffffff1660e01b81526004016107ee929190610c4e565b6020604051808303816000875af115801561080d573d6000803e3d6000fd5b505050506040513d601f19601f820116820180604052508101906108319190610ce5565b507fa04c965e7d289704527a948915777d68bb4530fb4b08aa935fb958c0b7901ab983338360405161086593929190610d12565b60405180910390a1505050565b60065481565b60035481565b60076020528060005260406000206000915090505481565b600260009054906101000a900473ffffffffffffffffffffffffffffffffffffffff1681565b60045481565b60055481565b600073ffffffffffffffffffffffffffffffffffffffff82169050919050565b60006108f3826108c8565b9050919050565b610903816108e8565b82525050565b600060208201905061091e60008301846108fa565b92915050565b600081519050919050565b600082825260208201905092915050565b60005b8381101561095e578082015181840152602081019050610943565b8381111561096d576000848401525b50505050565b6000601f19601f8301169050919050565b600061098f82610924565b610999818561092f565b93506109a9818560208601610940565b6109b281610973565b840191505092915050565b600060208201905081810360008301526109d78184610984565b905092915050565b6000819050919050565b6109f2816109df565b82525050565b6000602082019050610a0d60008301846109e9565b92915050565b600080fd5b610a21816109df565b8114610a2c57600080fd5b50565b600081359050610a3e81610a18565b92915050565b600060208284031215610a5a57610a59610a13565b5b6000610a6884828501610a2f565b91505092915050565b60008115159050919050565b610a8681610a71565b82525050565b6000602082019050610aa16000830184610a7d565b92915050565b600060c0820190508181036000830152610ac18189610984565b9050610ad060208301886108fa565b610add60408301876108fa565b610aea60608301866109e9565b610af760808301856109e9565b610b0460a08301846109e9565b979650505050505050565b610b18816108e8565b8114610b2357600080fd5b50565b600081359050610b3581610b0f565b92915050565b600060208284031215610b5157610b50610a13565b5b6000610b5f84828501610b26565b91505092915050565b7f4e487b7100000000000000000000000000000000000000000000000000000000600052602260045260246000fd5b60006002820490506001821680610baf57607f821691505b60208210811415610bc357610bc2610b68565b5b50919050565b7f4e487b7100000000000000000000000000000000000000000000000000000000600052601160045260246000fd5b6000610c03826109df565b9150610c0e836109df565b9250827fffffffffffffffffffffffffffffffffffffffffffffffffffffffffffffffff03821115610c4357610c42610bc9565b5b828201905092915050565b6000604082019050610c6360008301856108fa565b610c7060208301846109e9565b9392505050565b600081519050610c8681610a18565b92915050565b600060208284031215610ca257610ca1610a13565b5b6000610cb084828501610c77565b91505092915050565b610cc281610a71565b8114610ccd57600080fd5b50565b600081519050610cdf81610cb9565b92915050565b600060208284031215610cfb57610cfa610a13565b5b6000610d0984828501610cd0565b91505092915050565b6000606082019050610d2760008301866108fa565b610d3460208301856108fa565b610d4160408301846109e9565b94935050505056fea26469706673582212209b36f25855819608b5cc96d9363c223fe23c2437b27272db3ce82581b812bcd064736f6c634300080b0033a26469706673582212204660e84e4263bcb4822337d6a242ce8943950eb08522c31f22ba65f78d3f3cfb64736f6c634300080b0033",
  "immutableReferences": {},
  "source": "// SPDX-License-Identifier: MIT\r\npragma solidity >=0.4.22 <0.9.0;\r\nimport \"./Vault.sol\";\r\n\r\ncontract VaultFactory {\r\n \r\n    mapping(address => address[]) wallets;\r\n\r\n    address public wallet;\r\n\r\n    function getWallets(address _user) \r\n        public\r\n        view\r\n        returns(address[] memory)\r\n    {\r\n        return wallets[_user];\r\n    }\r\n\r\n    function newVault(address _owner, uint256 _unlockDate)\r\n        payable\r\n        public\r\n        returns(Vault vault)\r\n    {\r\n        // Create new wallet.\r\n        vault = new Vault('default', msg.sender, _owner, _unlockDate);\r\n        wallet = address(vault);\r\n        \r\n        // Add wallet to sender's wallets.\r\n        wallets[msg.sender].push(wallet);\r\n\r\n        // If owner is the same as sender then add wallet to sender's wallets too.\r\n        if(msg.sender != _owner){\r\n            wallets[_owner].push(wallet);\r\n        }\r\n\r\n        // Send ether from this transaction to the created contract.\r\n        payable(wallet).transfer(msg.value);\r\n\r\n        // Emit event.\r\n        emit Created(wallet, msg.sender, _owner, block.timestamp, _unlockDate, msg.value);\r\n\r\n        return vault;\r\n    }\r\n\r\n    // Prevents accidental sending of ether to the factory\r\n    fallback () external {\r\n        revert();\r\n    }\r\n\r\n    event Created(address wallet, address from, address to, uint256 createdAt, uint256 unlockDate, uint256 amount);\r\n}",
  "sourcePath": "E:\\Development\\_Personal\\Blockchain\\ico-steinnegen-coin\\contracts\\VaultFactory.sol",
  "compiler": {
    "name": "solc",
    "version": "0.8.11+commit.d7f03943.Emscripten.clang"
  },
  "schemaVersion": "3.4.4",
  "updatedAt": "2022-03-08T14:20:32.242Z",
  "networkType": "ethereum",
  "devdoc": {
    "kind": "dev",
    "methods": {},
    "version": 1
  },
  "userdoc": {
    "kind": "user",
    "methods": {},
    "version": 1
  }
}