{
  "contractName": "Vault",
  "abi": [
    {
      "inputs": [
        {
          "internalType": "string",
          "name": "_name",
          "type": "string"
        },
        {
          "internalType": "address",
          "name": "_creator",
          "type": "address"
        },
        {
          "internalType": "address",
          "name": "_owner",
          "type": "address"
        },
        {
          "internalType": "uint256",
          "name": "_unlockDate",
          "type": "uint256"
        }
      ],
      "stateMutability": "nonpayable",
      "type": "constructor"
    },
    {
      "anonymous": false,
      "inputs": [
        {
          "indexed": false,
          "internalType": "address",
          "name": "from",
          "type": "address"
        },
        {
          "indexed": false,
          "internalType": "uint256",
          "name": "amount",
          "type": "uint256"
        }
      ],
      "name": "Received",
      "type": "event"
    },
    {
      "anonymous": false,
      "inputs": [
        {
          "indexed": true,
          "internalType": "address",
          "name": "_from",
          "type": "address"
        },
        {
          "indexed": true,
          "internalType": "address",
          "name": "_to",
          "type": "address"
        },
        {
          "indexed": false,
          "internalType": "uint256",
          "name": "_value",
          "type": "uint256"
        }
      ],
      "name": "Transfer",
      "type": "event"
    },
    {
      "anonymous": false,
      "inputs": [
        {
          "indexed": false,
          "internalType": "address",
          "name": "to",
          "type": "address"
        },
        {
          "indexed": false,
          "internalType": "uint256",
          "name": "amount",
          "type": "uint256"
        }
      ],
      "name": "Withdrew",
      "type": "event"
    },
    {
      "anonymous": false,
      "inputs": [
        {
          "indexed": false,
          "internalType": "address",
          "name": "tokenContract",
          "type": "address"
        },
        {
          "indexed": false,
          "internalType": "address",
          "name": "to",
          "type": "address"
        },
        {
          "indexed": false,
          "internalType": "uint256",
          "name": "amount",
          "type": "uint256"
        }
      ],
      "name": "WithdrewTokens",
      "type": "event"
    },
    {
      "stateMutability": "payable",
      "type": "fallback",
      "payable": true
    },
    {
      "inputs": [
        {
          "internalType": "address",
          "name": "",
          "type": "address"
        }
      ],
      "name": "balanceOf",
      "outputs": [
        {
          "internalType": "uint256",
          "name": "",
          "type": "uint256"
        }
      ],
      "stateMutability": "view",
      "type": "function",
      "constant": true
    },
    {
      "inputs": [],
      "name": "createdAt",
      "outputs": [
        {
          "internalType": "uint256",
          "name": "",
          "type": "uint256"
        }
      ],
      "stateMutability": "view",
      "type": "function",
      "constant": true
    },
    {
      "inputs": [],
      "name": "creator",
      "outputs": [
        {
          "internalType": "address",
          "name": "",
          "type": "address"
        }
      ],
      "stateMutability": "view",
      "type": "function",
      "constant": true
    },
    {
      "inputs": [],
      "name": "owner",
      "outputs": [
        {
          "internalType": "address",
          "name": "",
          "type": "address"
        }
      ],
      "stateMutability": "view",
      "type": "function",
      "constant": true
    },
    {
      "inputs": [],
      "name": "startedAt",
      "outputs": [
        {
          "internalType": "uint256",
          "name": "",
          "type": "uint256"
        }
      ],
      "stateMutability": "view",
      "type": "function",
      "constant": true
    },
    {
      "inputs": [],
      "name": "tokenHoldings",
      "outputs": [
        {
          "internalType": "uint256",
          "name": "",
          "type": "uint256"
        }
      ],
      "stateMutability": "view",
      "type": "function",
      "constant": true
    },
    {
      "inputs": [],
      "name": "unlockDate",
      "outputs": [
        {
          "internalType": "uint256",
          "name": "",
          "type": "uint256"
        }
      ],
      "stateMutability": "view",
      "type": "function",
      "constant": true
    },
    {
      "inputs": [],
      "name": "vaultName",
      "outputs": [
        {
          "internalType": "string",
          "name": "",
          "type": "string"
        }
      ],
      "stateMutability": "view",
      "type": "function",
      "constant": true
    },
    {
      "stateMutability": "payable",
      "type": "receive",
      "payable": true
    },
    {
      "inputs": [],
      "name": "withdraw",
      "outputs": [],
      "stateMutability": "payable",
      "type": "function",
      "payable": true
    },
    {
      "inputs": [
        {
          "internalType": "address",
          "name": "_tokenContract",
          "type": "address"
        }
      ],
      "name": "withdrawTokens",
      "outputs": [],
      "stateMutability": "nonpayable",
      "type": "function"
    },
    {
      "inputs": [],
      "name": "info",
      "outputs": [
        {
          "internalType": "string",
          "name": "",
          "type": "string"
        },
        {
          "internalType": "address",
          "name": "",
          "type": "address"
        },
        {
          "internalType": "address",
          "name": "",
          "type": "address"
        },
        {
          "internalType": "uint256",
          "name": "",
          "type": "uint256"
        },
        {
          "internalType": "uint256",
          "name": "",
          "type": "uint256"
        },
        {
          "internalType": "uint256",
          "name": "",
          "type": "uint256"
        }
      ],
      "stateMutability": "view",
      "type": "function",
      "constant": true
    },
    {
      "inputs": [
        {
          "internalType": "uint256",
          "name": "_numberOfTokens",
          "type": "uint256"
        }
      ],
      "name": "transfer",
      "outputs": [
        {
          "internalType": "bool",
          "name": "success",
          "type": "bool"
        }
      ],
      "stateMutability": "nonpayable",
      "type": "function"
    },
    {
      "inputs": [],
      "name": "getBalance",
      "outputs": [
        {
          "internalType": "uint256",
          "name": "",
          "type": "uint256"
        }
      ],
      "stateMutability": "view",
      "type": "function",
      "constant": true
    }
  ],
  "bytecode": "0x60806040523480156200001157600080fd5b50604051620012a0380380620012a083398181016040528101906200003791906200041b565b826000806101000a81548173ffffffffffffffffffffffffffffffffffffffff021916908373ffffffffffffffffffffffffffffffffffffffff16021790555083600190805190602001906200008f9291906200012e565b5081600260006101000a81548173ffffffffffffffffffffffffffffffffffffffff021916908373ffffffffffffffffffffffffffffffffffffffff16021790555080600381905550426004819055506000600760003073ffffffffffffffffffffffffffffffffffffffff1673ffffffffffffffffffffffffffffffffffffffff168152602001908152602001600020819055505050505062000511565b8280546200013c90620004db565b90600052602060002090601f016020900481019282620001605760008555620001ac565b82601f106200017b57805160ff1916838001178555620001ac565b82800160010185558215620001ac579182015b82811115620001ab5782518255916020019190600101906200018e565b5b509050620001bb9190620001bf565b5090565b5b80821115620001da576000816000905550600101620001c0565b5090565b6000604051905090565b600080fd5b600080fd5b600080fd5b600080fd5b6000601f19601f8301169050919050565b7f4e487b7100000000000000000000000000000000000000000000000000000000600052604160045260246000fd5b6200024782620001fc565b810181811067ffffffffffffffff821117156200026957620002686200020d565b5b80604052505050565b60006200027e620001de565b90506200028c82826200023c565b919050565b600067ffffffffffffffff821115620002af57620002ae6200020d565b5b620002ba82620001fc565b9050602081019050919050565b60005b83811015620002e7578082015181840152602081019050620002ca565b83811115620002f7576000848401525b50505050565b6000620003146200030e8462000291565b62000272565b905082815260208101848484011115620003335762000332620001f7565b5b62000340848285620002c7565b509392505050565b600082601f83011262000360576200035f620001f2565b5b815162000372848260208601620002fd565b91505092915050565b600073ffffffffffffffffffffffffffffffffffffffff82169050919050565b6000620003a8826200037b565b9050919050565b620003ba816200039b565b8114620003c657600080fd5b50565b600081519050620003da81620003af565b92915050565b6000819050919050565b620003f581620003e0565b81146200040157600080fd5b50565b6000815190506200041581620003ea565b92915050565b60008060008060808587031215620004385762000437620001e8565b5b600085015167ffffffffffffffff811115620004595762000458620001ed565b5b620004678782880162000348565b94505060206200047a87828801620003c9565b93505060406200048d87828801620003c9565b9250506060620004a08782880162000404565b91505092959194509250565b7f4e487b7100000000000000000000000000000000000000000000000000000000600052602260045260246000fd5b60006002820490506001821680620004f457607f821691505b602082108114156200050b576200050a620004ac565b5b50919050565b610d7f80620005216000396000f3fe6080604052600436106100c65760003560e01c806349df728c1161007f57806370a082311161005957806370a08231146102465780638da5cb5b14610283578063cf09e0d0146102ae578063f21f537d146102d9576100cd565b806349df728c146101c75780634f763db6146101f057806369ac57211461021b576100cd565b806302d05d3f146100cf5780630ace9ca0146100fa57806312065fe01461012557806312514bba14610150578063370158ea1461018d5780633ccfd60b146101bd576100cd565b366100cd57005b005b3480156100db57600080fd5b506100e4610304565b6040516100f19190610909565b60405180910390f35b34801561010657600080fd5b5061010f610328565b60405161011c91906109bd565b60405180910390f35b34801561013157600080fd5b5061013a6103b6565b60405161014791906109f8565b60405180910390f35b34801561015c57600080fd5b5061017760048036038101906101729190610a44565b6103be565b6040516101849190610a8c565b60405180910390f35b34801561019957600080fd5b506101a2610484565b6040516101b496959493929190610aa7565b60405180910390f35b6101c56105ba565b005b3480156101d357600080fd5b506101ee60048036038101906101e99190610b3b565b6106a5565b005b3480156101fc57600080fd5b50610205610872565b60405161021291906109f8565b60405180910390f35b34801561022757600080fd5b50610230610878565b60405161023d91906109f8565b60405180910390f35b34801561025257600080fd5b5061026d60048036038101906102689190610b3b565b61087e565b60405161027a91906109f8565b60405180910390f35b34801561028f57600080fd5b50610298610896565b6040516102a59190610909565b60405180910390f35b3480156102ba57600080fd5b506102c36108bc565b6040516102d091906109f8565b60405180910390f35b3480156102e557600080fd5b506102ee6108c2565b6040516102fb91906109f8565b60405180910390f35b60008054906101000a900473ffffffffffffffffffffffffffffffffffffffff1681565b6001805461033590610b97565b80601f016020809104026020016040519081016040528092919081815260200182805461036190610b97565b80156103ae5780601f10610383576101008083540402835291602001916103ae565b820191906000526020600020905b81548152906001019060200180831161039157829003601f168201915b505050505081565b600047905090565b600081600760003073ffffffffffffffffffffffffffffffffffffffff1673ffffffffffffffffffffffffffffffffffffffff168152602001908152602001600020600082825461040f9190610bf8565b925050819055503073ffffffffffffffffffffffffffffffffffffffff163373ffffffffffffffffffffffffffffffffffffffff167fddf252ad1be2c89b69c2b068fc378daa952ba7f163c4a11628f55a4df523b3ef8460405161047391906109f8565b60405180910390a360019050919050565b60606000806000806000600160008054906101000a900473ffffffffffffffffffffffffffffffffffffffff16600260009054906101000a900473ffffffffffffffffffffffffffffffffffffffff16600354600454600760003073ffffffffffffffffffffffffffffffffffffffff1673ffffffffffffffffffffffffffffffffffffffff1681526020019081526020016000205485805461052690610b97565b80601f016020809104026020016040519081016040528092919081815260200182805461055290610b97565b801561059f5780601f106105745761010080835404028352916020019161059f565b820191906000526020600020905b81548152906001019060200180831161058257829003601f168201915b50505050509550955095509550955095509550909192939495565b600260009054906101000a900473ffffffffffffffffffffffffffffffffffffffff1673ffffffffffffffffffffffffffffffffffffffff163373ffffffffffffffffffffffffffffffffffffffff161461061457600080fd5b60035442101561062357600080fd5b3373ffffffffffffffffffffffffffffffffffffffff166108fc479081150290604051600060405180830381858888f19350505050158015610669573d6000803e3d6000fd5b507fb244b9a17ad633c6e83b7983ee04320484956a68ddbe96a0b70dfca1cf19d723334760405161069b929190610c4e565b60405180910390a1565b600260009054906101000a900473ffffffffffffffffffffffffffffffffffffffff1673ffffffffffffffffffffffffffffffffffffffff163373ffffffffffffffffffffffffffffffffffffffff16146106ff57600080fd5b60035442101561070e57600080fd5b600081905060008173ffffffffffffffffffffffffffffffffffffffff166370a08231306040518263ffffffff1660e01b815260040161074e9190610909565b602060405180830381865afa15801561076b573d6000803e3d6000fd5b505050506040513d601f19601f8201168201806040525081019061078f9190610c8c565b90508173ffffffffffffffffffffffffffffffffffffffff1663a9059cbb600260009054906101000a900473ffffffffffffffffffffffffffffffffffffffff16836040518363ffffffff1660e01b81526004016107ee929190610c4e565b6020604051808303816000875af115801561080d573d6000803e3d6000fd5b505050506040513d601f19601f820116820180604052508101906108319190610ce5565b507fa04c965e7d289704527a948915777d68bb4530fb4b08aa935fb958c0b7901ab983338360405161086593929190610d12565b60405180910390a1505050565b60065481565b60035481565b60076020528060005260406000206000915090505481565b600260009054906101000a900473ffffffffffffffffffffffffffffffffffffffff1681565b60045481565b60055481565b600073ffffffffffffffffffffffffffffffffffffffff82169050919050565b60006108f3826108c8565b9050919050565b610903816108e8565b82525050565b600060208201905061091e60008301846108fa565b92915050565b600081519050919050565b600082825260208201905092915050565b60005b8381101561095e578082015181840152602081019050610943565b8381111561096d576000848401525b50505050565b6000601f19601f8301169050919050565b600061098f82610924565b610999818561092f565b93506109a9818560208601610940565b6109b281610973565b840191505092915050565b600060208201905081810360008301526109d78184610984565b905092915050565b6000819050919050565b6109f2816109df565b82525050565b6000602082019050610a0d60008301846109e9565b92915050565b600080fd5b610a21816109df565b8114610a2c57600080fd5b50565b600081359050610a3e81610a18565b92915050565b600060208284031215610a5a57610a59610a13565b5b6000610a6884828501610a2f565b91505092915050565b60008115159050919050565b610a8681610a71565b82525050565b6000602082019050610aa16000830184610a7d565b92915050565b600060c0820190508181036000830152610ac18189610984565b9050610ad060208301886108fa565b610add60408301876108fa565b610aea60608301866109e9565b610af760808301856109e9565b610b0460a08301846109e9565b979650505050505050565b610b18816108e8565b8114610b2357600080fd5b50565b600081359050610b3581610b0f565b92915050565b600060208284031215610b5157610b50610a13565b5b6000610b5f84828501610b26565b91505092915050565b7f4e487b7100000000000000000000000000000000000000000000000000000000600052602260045260246000fd5b60006002820490506001821680610baf57607f821691505b60208210811415610bc357610bc2610b68565b5b50919050565b7f4e487b7100000000000000000000000000000000000000000000000000000000600052601160045260246000fd5b6000610c03826109df565b9150610c0e836109df565b9250827fffffffffffffffffffffffffffffffffffffffffffffffffffffffffffffffff03821115610c4357610c42610bc9565b5b828201905092915050565b6000604082019050610c6360008301856108fa565b610c7060208301846109e9565b9392505050565b600081519050610c8681610a18565b92915050565b600060208284031215610ca257610ca1610a13565b5b6000610cb084828501610c77565b91505092915050565b610cc281610a71565b8114610ccd57600080fd5b50565b600081519050610cdf81610cb9565b92915050565b600060208284031215610cfb57610cfa610a13565b5b6000610d0984828501610cd0565b91505092915050565b6000606082019050610d2760008301866108fa565b610d3460208301856108fa565b610d4160408301846109e9565b94935050505056fea26469706673582212209b36f25855819608b5cc96d9363c223fe23c2437b27272db3ce82581b812bcd064736f6c634300080b0033",
  "immutableReferences": {},
  "source": "// SPDX-License-Identifier: MIT\r\npragma solidity >=0.4.22 <0.9.0;\r\nimport \"openzeppelin-solidity/contracts/token/ERC20/ERC20.sol\";\r\nimport \"openzeppelin-solidity/contracts/utils/math/SafeMath.sol\";\r\n\r\ncontract Vault {\r\n    address public creator;\r\n    string public vaultName;\r\n    address public owner;\r\n    uint256 public unlockDate;\r\n    uint256 public createdAt;\r\n    uint256 public startedAt;\r\n    uint256 public tokenHoldings;\r\n    mapping(address => uint256) public balanceOf;\r\n\r\n    event Received(address from, uint256 amount);\r\n    event Withdrew(address to, uint256 amount);\r\n    event WithdrewTokens(address tokenContract, address to, uint256 amount);\r\n    event Transfer(address indexed _from, address indexed _to, uint256 _value);\r\n\r\n    modifier onlyOwner() {\r\n        require(msg.sender == owner);\r\n        _;\r\n    }\r\n\r\n    constructor(\r\n        string memory _name,\r\n        address _creator,\r\n        address _owner,\r\n        uint256 _unlockDate\r\n    ) {\r\n        creator = _creator;\r\n        vaultName = _name;\r\n        owner = _owner;\r\n        unlockDate = _unlockDate;\r\n        createdAt = block.timestamp;\r\n        balanceOf[address(this)] = 0;\r\n    }\r\n\r\n    // callable by owner only, after specified time\r\n    function withdraw() public payable onlyOwner {\r\n        require(block.timestamp >= unlockDate);\r\n        //now send all the balance\r\n        payable(msg.sender).transfer(address(this).balance);\r\n        emit Withdrew(msg.sender, address(this).balance);\r\n    }\r\n\r\n    // callable by owner only, after specified time, only for Tokens implementing ERC20\r\n    function withdrawTokens(address _tokenContract) public onlyOwner {\r\n        require(block.timestamp >= unlockDate);\r\n        ERC20 token = ERC20(_tokenContract);\r\n        //now send all the token balance\r\n        uint256 tokenBalance = token.balanceOf(address(this));\r\n        token.transfer(owner, tokenBalance);\r\n        emit WithdrewTokens(_tokenContract, msg.sender, tokenBalance);\r\n    }\r\n\r\n    function info()\r\n        public\r\n        view\r\n        returns (\r\n            string memory,\r\n            address,\r\n            address,\r\n            uint256,\r\n            uint256,\r\n            uint256\r\n        )\r\n    {\r\n        return (\r\n            vaultName,\r\n            creator,\r\n            owner,\r\n            unlockDate,\r\n            createdAt,\r\n            balanceOf[address(this)]\r\n        );\r\n    }\r\n\r\n    function transfer(uint256 _numberOfTokens) public returns (bool success) {\r\n        // require that the value is greater or equal for transfer\r\n        // transfer the amount and subtract the balance\r\n        // add the balance\r\n        balanceOf[address(this)] += _numberOfTokens;\r\n        emit Transfer(msg.sender, address(this), _numberOfTokens);\r\n        return true;\r\n    }\r\n\r\n    receive() external payable {}\r\n\r\n    // Fallback function is called when msg.data is not empty\r\n    fallback() external payable {}\r\n\r\n    function getBalance() public view returns (uint256) {\r\n        return address(this).balance;\r\n    }\r\n}\r\n",
  "sourcePath": "E:\\Development\\_Personal\\Blockchain\\ico-steinnegen-coin\\contracts\\Vault.sol",
  "compiler": {
    "name": "solc",
    "version": "0.8.11+commit.d7f03943.Emscripten.clang"
  },
  "schemaVersion": "3.4.4",
  "updatedAt": "2022-03-08T14:20:32.248Z",
  "networkType": "ethereum",
  "devdoc": {
    "kind": "dev",
    "methods": {},
    "version": 1
  },
  "userdoc": {
    "kind": "user",
    "methods": {},
    "version": 1
  }
}