{
  "contractName": "Vault",
  "abi": [
    {
      "inputs": [
        {
          "internalType": "address",
          "name": "_creator",
          "type": "address"
        },
        {
          "internalType": "address",
          "name": "_owner",
          "type": "address"
        },
        {
          "internalType": "uint256",
          "name": "_unlockDate",
          "type": "uint256"
        }
      ],
      "stateMutability": "nonpayable",
      "type": "constructor"
    },
    {
      "anonymous": false,
      "inputs": [
        {
          "indexed": false,
          "internalType": "address",
          "name": "from",
          "type": "address"
        },
        {
          "indexed": false,
          "internalType": "uint256",
          "name": "amount",
          "type": "uint256"
        }
      ],
      "name": "Received",
      "type": "event"
    },
    {
      "anonymous": false,
      "inputs": [
        {
          "indexed": false,
          "internalType": "address",
          "name": "to",
          "type": "address"
        },
        {
          "indexed": false,
          "internalType": "uint256",
          "name": "amount",
          "type": "uint256"
        }
      ],
      "name": "Withdrew",
      "type": "event"
    },
    {
      "anonymous": false,
      "inputs": [
        {
          "indexed": false,
          "internalType": "address",
          "name": "tokenContract",
          "type": "address"
        },
        {
          "indexed": false,
          "internalType": "address",
          "name": "to",
          "type": "address"
        },
        {
          "indexed": false,
          "internalType": "uint256",
          "name": "amount",
          "type": "uint256"
        }
      ],
      "name": "WithdrewTokens",
      "type": "event"
    },
    {
      "inputs": [],
      "name": "createdAt",
      "outputs": [
        {
          "internalType": "uint256",
          "name": "",
          "type": "uint256"
        }
      ],
      "stateMutability": "view",
      "type": "function"
    },
    {
      "inputs": [],
      "name": "creator",
      "outputs": [
        {
          "internalType": "address",
          "name": "",
          "type": "address"
        }
      ],
      "stateMutability": "view",
      "type": "function"
    },
    {
      "inputs": [],
      "name": "owner",
      "outputs": [
        {
          "internalType": "address",
          "name": "",
          "type": "address"
        }
      ],
      "stateMutability": "view",
      "type": "function"
    },
    {
      "inputs": [],
      "name": "unlockDate",
      "outputs": [
        {
          "internalType": "uint256",
          "name": "",
          "type": "uint256"
        }
      ],
      "stateMutability": "view",
      "type": "function"
    },
    {
      "stateMutability": "payable",
      "type": "receive"
    },
    {
      "inputs": [],
      "name": "withdraw",
      "outputs": [],
      "stateMutability": "payable",
      "type": "function"
    },
    {
      "inputs": [
        {
          "internalType": "address",
          "name": "_tokenContract",
          "type": "address"
        }
      ],
      "name": "withdrawTokens",
      "outputs": [],
      "stateMutability": "nonpayable",
      "type": "function"
    },
    {
      "inputs": [],
      "name": "info",
      "outputs": [
        {
          "internalType": "address",
          "name": "",
          "type": "address"
        },
        {
          "internalType": "address",
          "name": "",
          "type": "address"
        },
        {
          "internalType": "uint256",
          "name": "",
          "type": "uint256"
        },
        {
          "internalType": "uint256",
          "name": "",
          "type": "uint256"
        },
        {
          "internalType": "uint256",
          "name": "",
          "type": "uint256"
        }
      ],
      "stateMutability": "view",
      "type": "function"
    }
  ],
  "bytecode": "0x608060405234801561001057600080fd5b5060405161099338038061099383398181016040528101906100329190610162565b826000806101000a81548173ffffffffffffffffffffffffffffffffffffffff021916908373ffffffffffffffffffffffffffffffffffffffff16021790555081600160006101000a81548173ffffffffffffffffffffffffffffffffffffffff021916908373ffffffffffffffffffffffffffffffffffffffff16021790555080600281905550426003819055505050506101b5565b600080fd5b600073ffffffffffffffffffffffffffffffffffffffff82169050919050565b60006100f9826100ce565b9050919050565b610109816100ee565b811461011457600080fd5b50565b60008151905061012681610100565b92915050565b6000819050919050565b61013f8161012c565b811461014a57600080fd5b50565b60008151905061015c81610136565b92915050565b60008060006060848603121561017b5761017a6100c9565b5b600061018986828701610117565b935050602061019a86828701610117565b92505060406101ab8682870161014d565b9150509250925092565b6107cf806101c46000396000f3fe6080604052600436106100745760003560e01c806349df728c1161004e57806349df728c1461011d57806369ac5721146101465780638da5cb5b14610171578063cf09e0d01461019c576100b4565b806302d05d3f146100b9578063370158ea146100e45780633ccfd60b14610113576100b4565b366100b4577f88a5966d370b9919b20f3e2c13ff65706f196a4e32cc2c12bf57088f8852587433346040516100aa929190610594565b60405180910390a1005b600080fd5b3480156100c557600080fd5b506100ce6101c7565b6040516100db91906105bd565b60405180910390f35b3480156100f057600080fd5b506100f96101eb565b60405161010a9594939291906105d8565b60405180910390f35b61011b610250565b005b34801561012957600080fd5b50610144600480360381019061013f919061065c565b61033b565b005b34801561015257600080fd5b5061015b610508565b6040516101689190610689565b60405180910390f35b34801561017d57600080fd5b5061018661050e565b60405161019391906105bd565b60405180910390f35b3480156101a857600080fd5b506101b1610534565b6040516101be9190610689565b60405180910390f35b60008054906101000a900473ffffffffffffffffffffffffffffffffffffffff1681565b60008060008060008060009054906101000a900473ffffffffffffffffffffffffffffffffffffffff16600160009054906101000a900473ffffffffffffffffffffffffffffffffffffffff1660025460035447945094509450945094509091929394565b600160009054906101000a900473ffffffffffffffffffffffffffffffffffffffff1673ffffffffffffffffffffffffffffffffffffffff163373ffffffffffffffffffffffffffffffffffffffff16146102aa57600080fd5b6002544210156102b957600080fd5b3373ffffffffffffffffffffffffffffffffffffffff166108fc479081150290604051600060405180830381858888f193505050501580156102ff573d6000803e3d6000fd5b507fb244b9a17ad633c6e83b7983ee04320484956a68ddbe96a0b70dfca1cf19d7233347604051610331929190610594565b60405180910390a1565b600160009054906101000a900473ffffffffffffffffffffffffffffffffffffffff1673ffffffffffffffffffffffffffffffffffffffff163373ffffffffffffffffffffffffffffffffffffffff161461039557600080fd5b6002544210156103a457600080fd5b600081905060008173ffffffffffffffffffffffffffffffffffffffff166370a08231306040518263ffffffff1660e01b81526004016103e491906105bd565b602060405180830381865afa158015610401573d6000803e3d6000fd5b505050506040513d601f19601f8201168201806040525081019061042591906106d0565b90508173ffffffffffffffffffffffffffffffffffffffff1663a9059cbb600160009054906101000a900473ffffffffffffffffffffffffffffffffffffffff16836040518363ffffffff1660e01b8152600401610484929190610594565b6020604051808303816000875af11580156104a3573d6000803e3d6000fd5b505050506040513d601f19601f820116820180604052508101906104c79190610735565b507fa04c965e7d289704527a948915777d68bb4530fb4b08aa935fb958c0b7901ab98333836040516104fb93929190610762565b60405180910390a1505050565b60025481565b600160009054906101000a900473ffffffffffffffffffffffffffffffffffffffff1681565b60035481565b600073ffffffffffffffffffffffffffffffffffffffff82169050919050565b60006105658261053a565b9050919050565b6105758161055a565b82525050565b6000819050919050565b61058e8161057b565b82525050565b60006040820190506105a9600083018561056c565b6105b66020830184610585565b9392505050565b60006020820190506105d2600083018461056c565b92915050565b600060a0820190506105ed600083018861056c565b6105fa602083018761056c565b6106076040830186610585565b6106146060830185610585565b6106216080830184610585565b9695505050505050565b600080fd5b6106398161055a565b811461064457600080fd5b50565b60008135905061065681610630565b92915050565b6000602082840312156106725761067161062b565b5b600061068084828501610647565b91505092915050565b600060208201905061069e6000830184610585565b92915050565b6106ad8161057b565b81146106b857600080fd5b50565b6000815190506106ca816106a4565b92915050565b6000602082840312156106e6576106e561062b565b5b60006106f4848285016106bb565b91505092915050565b60008115159050919050565b610712816106fd565b811461071d57600080fd5b50565b60008151905061072f81610709565b92915050565b60006020828403121561074b5761074a61062b565b5b600061075984828501610720565b91505092915050565b6000606082019050610777600083018661056c565b610784602083018561056c565b6107916040830184610585565b94935050505056fea264697066735822122073f95261958ce647e4055fe9d5f470325865366b7bb4d99229308a89497e9c1064736f6c634300080b0033",
  "immutableReferences": {},
  "source": "// SPDX-License-Identifier: MIT\r\npragma solidity >=0.4.22 <0.9.0;\r\nimport \"openzeppelin-solidity/contracts/token/ERC20/ERC20.sol\";\r\n\r\ncontract Vault {\r\n    address public creator;\r\n    address public owner;\r\n    uint256 public unlockDate;\r\n    uint256 public createdAt;\r\n\r\n    \r\n    event Received(address from, uint256 amount);\r\n    event Withdrew(address to, uint256 amount);\r\n    event WithdrewTokens(address tokenContract, address to, uint256 amount);\r\n\r\n    modifier onlyOwner() {\r\n        require(msg.sender == owner);\r\n        _;\r\n    }\r\n\r\n    constructor(\r\n        address _creator,\r\n        address _owner,\r\n        uint256 _unlockDate\r\n    ) {\r\n        creator = _creator;\r\n        owner = _owner;\r\n        unlockDate = _unlockDate;\r\n        createdAt = block.timestamp;\r\n    }\r\n\r\n     // callable by owner only, after specified time\r\n    function withdraw() onlyOwner public payable {\r\n       require(block.timestamp >= unlockDate);\r\n       //now send all the balance\r\n       payable(msg.sender).transfer(address(this).balance);\r\n       emit Withdrew(msg.sender, address(this).balance);\r\n    }\r\n\r\n    // callable by owner only, after specified time, only for Tokens implementing ERC20\r\n    function withdrawTokens(address _tokenContract) onlyOwner public {\r\n       require(block.timestamp >= unlockDate);\r\n       ERC20 token = ERC20(_tokenContract);\r\n       //now send all the token balance\r\n       uint256 tokenBalance = token.balanceOf(address(this));\r\n       token.transfer(owner, tokenBalance);\r\n       emit WithdrewTokens(_tokenContract, msg.sender, tokenBalance);\r\n    }\r\n\r\n    function info() public view returns(address, address, uint256, uint256, uint256) {\r\n        return (creator, owner, unlockDate, createdAt,  address(this).balance);\r\n    }\r\n\r\n    receive() payable external { \r\n      emit Received(msg.sender, msg.value);\r\n    }\r\n\r\n}\r\n",
  "sourcePath": "E:\\Development\\_Personal\\Blockchain\\ico-steinnegen-coin\\contracts\\Vault.sol",
  "compiler": {
    "name": "solc",
    "version": "0.8.11+commit.d7f03943.Emscripten.clang"
  },
  "schemaVersion": "3.4.4",
  "updatedAt": "2022-03-05T21:25:14.225Z",
  "devdoc": {
    "kind": "dev",
    "methods": {},
    "version": 1
  },
  "userdoc": {
    "kind": "user",
    "methods": {},
    "version": 1
  }
}