{
  "contractName": "VaultFactory",
  "abi": [
    {
      "anonymous": false,
      "inputs": [
        {
          "indexed": false,
          "internalType": "address",
          "name": "wallet",
          "type": "address"
        },
        {
          "indexed": false,
          "internalType": "address",
          "name": "from",
          "type": "address"
        },
        {
          "indexed": false,
          "internalType": "address",
          "name": "to",
          "type": "address"
        },
        {
          "indexed": false,
          "internalType": "uint256",
          "name": "createdAt",
          "type": "uint256"
        },
        {
          "indexed": false,
          "internalType": "uint256",
          "name": "unlockDate",
          "type": "uint256"
        },
        {
          "indexed": false,
          "internalType": "uint256",
          "name": "amount",
          "type": "uint256"
        }
      ],
      "name": "Created",
      "type": "event"
    },
    {
      "stateMutability": "nonpayable",
      "type": "fallback"
    },
    {
      "inputs": [
        {
          "internalType": "address",
          "name": "_user",
          "type": "address"
        }
      ],
      "name": "getWallets",
      "outputs": [
        {
          "internalType": "address[]",
          "name": "",
          "type": "address[]"
        }
      ],
      "stateMutability": "view",
      "type": "function",
      "constant": true
    },
    {
      "inputs": [
        {
          "internalType": "address",
          "name": "_owner",
          "type": "address"
        },
        {
          "internalType": "uint256",
          "name": "_unlockDate",
          "type": "uint256"
        }
      ],
      "name": "newVault",
      "outputs": [
        {
          "internalType": "address",
          "name": "wallet",
          "type": "address"
        }
      ],
      "stateMutability": "payable",
      "type": "function",
      "payable": true
    }
  ],
  "bytecode": "0x608060405234801561001057600080fd5b50611080806100206000396000f3fe60806040526004361061002d5760003560e01c80632eeabd8f14610040578063422c29a4146100705761002e565b5b34801561003a57600080fd5b50600080fd5b61005a6004803603810190610055919061045b565b6100ad565b60405161006791906104aa565b60405180910390f35b34801561007c57600080fd5b50610097600480360381019061009291906104c5565b6102e9565b6040516100a491906105b0565b60405180910390f35b60003383836040516100be906103b5565b6100ca939291906105e1565b604051809103906000f0801580156100e6573d6000803e3d6000fd5b5090506000803373ffffffffffffffffffffffffffffffffffffffff1673ffffffffffffffffffffffffffffffffffffffff168152602001908152602001600020819080600181540180825580915050600190039060005260206000200160009091909190916101000a81548173ffffffffffffffffffffffffffffffffffffffff021916908373ffffffffffffffffffffffffffffffffffffffff1602179055508273ffffffffffffffffffffffffffffffffffffffff163373ffffffffffffffffffffffffffffffffffffffff161461025b576000808473ffffffffffffffffffffffffffffffffffffffff1673ffffffffffffffffffffffffffffffffffffffff168152602001908152602001600020819080600181540180825580915050600190039060005260206000200160009091909190916101000a81548173ffffffffffffffffffffffffffffffffffffffff021916908373ffffffffffffffffffffffffffffffffffffffff1602179055505b8073ffffffffffffffffffffffffffffffffffffffff166108fc349081150290604051600060405180830381858888f193505050501580156102a1573d6000803e3d6000fd5b507f14d5db8c1f746c7adcbcd13cf8945dd2ac6ad58be52380b8c4933c876f76e1bf8133854286346040516102db96959493929190610618565b60405180910390a192915050565b60606000808373ffffffffffffffffffffffffffffffffffffffff1673ffffffffffffffffffffffffffffffffffffffff1681526020019081526020016000208054806020026020016040519081016040528092919081815260200182805480156103a957602002820191906000526020600020905b8160009054906101000a900473ffffffffffffffffffffffffffffffffffffffff1673ffffffffffffffffffffffffffffffffffffffff168152602001906001019080831161035f575b50505050509050919050565b6109d18061067a83390190565b600080fd5b600073ffffffffffffffffffffffffffffffffffffffff82169050919050565b60006103f2826103c7565b9050919050565b610402816103e7565b811461040d57600080fd5b50565b60008135905061041f816103f9565b92915050565b6000819050919050565b61043881610425565b811461044357600080fd5b50565b6000813590506104558161042f565b92915050565b60008060408385031215610472576104716103c2565b5b600061048085828601610410565b925050602061049185828601610446565b9150509250929050565b6104a4816103e7565b82525050565b60006020820190506104bf600083018461049b565b92915050565b6000602082840312156104db576104da6103c2565b5b60006104e984828501610410565b91505092915050565b600081519050919050565b600082825260208201905092915050565b6000819050602082019050919050565b610527816103e7565b82525050565b6000610539838361051e565b60208301905092915050565b6000602082019050919050565b600061055d826104f2565b61056781856104fd565b93506105728361050e565b8060005b838110156105a357815161058a888261052d565b975061059583610545565b925050600181019050610576565b5085935050505092915050565b600060208201905081810360008301526105ca8184610552565b905092915050565b6105db81610425565b82525050565b60006060820190506105f6600083018661049b565b610603602083018561049b565b61061060408301846105d2565b949350505050565b600060c08201905061062d600083018961049b565b61063a602083018861049b565b610647604083018761049b565b61065460608301866105d2565b61066160808301856105d2565b61066e60a08301846105d2565b97965050505050505056fe608060405234801561001057600080fd5b506040516109d13803806109d183398181016040528101906100329190610162565b826000806101000a81548173ffffffffffffffffffffffffffffffffffffffff021916908373ffffffffffffffffffffffffffffffffffffffff16021790555081600160006101000a81548173ffffffffffffffffffffffffffffffffffffffff021916908373ffffffffffffffffffffffffffffffffffffffff16021790555080600281905550426003819055505050506101b5565b600080fd5b600073ffffffffffffffffffffffffffffffffffffffff82169050919050565b60006100f9826100ce565b9050919050565b610109816100ee565b811461011457600080fd5b50565b60008151905061012681610100565b92915050565b6000819050919050565b61013f8161012c565b811461014a57600080fd5b50565b60008151905061015c81610136565b92915050565b60008060006060848603121561017b5761017a6100c9565b5b600061018986828701610117565b935050602061019a86828701610117565b92505060406101ab8682870161014d565b9150509250925092565b61080d806101c46000396000f3fe60806040526004361061008a5760003560e01c806349df728c1161005957806349df728c1461012257806369ac57211461014b5780638da5cb5b14610176578063cf09e0d0146101a1578063f21f537d146101cc57610091565b806302d05d3f1461009357806312065fe0146100be578063370158ea146100e95780633ccfd60b1461011857610091565b3661009157005b005b34801561009f57600080fd5b506100a86101f7565b6040516100b591906105b9565b60405180910390f35b3480156100ca57600080fd5b506100d361021b565b6040516100e091906105ed565b60405180910390f35b3480156100f557600080fd5b506100fe610223565b60405161010f959493929190610608565b60405180910390f35b610120610288565b005b34801561012e57600080fd5b506101496004803603810190610144919061068c565b610373565b005b34801561015757600080fd5b50610160610540565b60405161016d91906105ed565b60405180910390f35b34801561018257600080fd5b5061018b610546565b60405161019891906105b9565b60405180910390f35b3480156101ad57600080fd5b506101b661056c565b6040516101c391906105ed565b60405180910390f35b3480156101d857600080fd5b506101e1610572565b6040516101ee91906105ed565b60405180910390f35b60008054906101000a900473ffffffffffffffffffffffffffffffffffffffff1681565b600047905090565b60008060008060008060009054906101000a900473ffffffffffffffffffffffffffffffffffffffff16600160009054906101000a900473ffffffffffffffffffffffffffffffffffffffff1660025460035447945094509450945094509091929394565b600160009054906101000a900473ffffffffffffffffffffffffffffffffffffffff1673ffffffffffffffffffffffffffffffffffffffff163373ffffffffffffffffffffffffffffffffffffffff16146102e257600080fd5b6002544210156102f157600080fd5b3373ffffffffffffffffffffffffffffffffffffffff166108fc479081150290604051600060405180830381858888f19350505050158015610337573d6000803e3d6000fd5b507fb244b9a17ad633c6e83b7983ee04320484956a68ddbe96a0b70dfca1cf19d72333476040516103699291906106b9565b60405180910390a1565b600160009054906101000a900473ffffffffffffffffffffffffffffffffffffffff1673ffffffffffffffffffffffffffffffffffffffff163373ffffffffffffffffffffffffffffffffffffffff16146103cd57600080fd5b6002544210156103dc57600080fd5b600081905060008173ffffffffffffffffffffffffffffffffffffffff166370a08231306040518263ffffffff1660e01b815260040161041c91906105b9565b602060405180830381865afa158015610439573d6000803e3d6000fd5b505050506040513d601f19601f8201168201806040525081019061045d919061070e565b90508173ffffffffffffffffffffffffffffffffffffffff1663a9059cbb600160009054906101000a900473ffffffffffffffffffffffffffffffffffffffff16836040518363ffffffff1660e01b81526004016104bc9291906106b9565b6020604051808303816000875af11580156104db573d6000803e3d6000fd5b505050506040513d601f19601f820116820180604052508101906104ff9190610773565b507fa04c965e7d289704527a948915777d68bb4530fb4b08aa935fb958c0b7901ab9833383604051610533939291906107a0565b60405180910390a1505050565b60025481565b600160009054906101000a900473ffffffffffffffffffffffffffffffffffffffff1681565b60035481565b60045481565b600073ffffffffffffffffffffffffffffffffffffffff82169050919050565b60006105a382610578565b9050919050565b6105b381610598565b82525050565b60006020820190506105ce60008301846105aa565b92915050565b6000819050919050565b6105e7816105d4565b82525050565b600060208201905061060260008301846105de565b92915050565b600060a08201905061061d60008301886105aa565b61062a60208301876105aa565b61063760408301866105de565b61064460608301856105de565b61065160808301846105de565b9695505050505050565b600080fd5b61066981610598565b811461067457600080fd5b50565b60008135905061068681610660565b92915050565b6000602082840312156106a2576106a161065b565b5b60006106b084828501610677565b91505092915050565b60006040820190506106ce60008301856105aa565b6106db60208301846105de565b9392505050565b6106eb816105d4565b81146106f657600080fd5b50565b600081519050610708816106e2565b92915050565b6000602082840312156107245761072361065b565b5b6000610732848285016106f9565b91505092915050565b60008115159050919050565b6107508161073b565b811461075b57600080fd5b50565b60008151905061076d81610747565b92915050565b6000602082840312156107895761078861065b565b5b60006107978482850161075e565b91505092915050565b60006060820190506107b560008301866105aa565b6107c260208301856105aa565b6107cf60408301846105de565b94935050505056fea26469706673582212203d493eacb06d01873ffbf2168296b4f0e899fff0329f5d918f1cc7b6df65ba2964736f6c634300080b0033a26469706673582212203802f9961b28c457725d8ec5bffdbefa551ec85b998a6821165d770f22ed94a864736f6c634300080b0033",
  "immutableReferences": {},
  "source": "// SPDX-License-Identifier: MIT\r\npragma solidity >=0.4.22 <0.9.0;\r\nimport \"./Vault.sol\";\r\n\r\ncontract VaultFactory {\r\n \r\n    mapping(address => address[]) wallets;\r\n\r\n    function getWallets(address _user) \r\n        public\r\n        view\r\n        returns(address[] memory)\r\n    {\r\n        return wallets[_user];\r\n    }\r\n\r\n    function newVault(address _owner, uint256 _unlockDate)\r\n        payable\r\n        public\r\n        returns(address wallet)\r\n    {\r\n        // Create new wallet.\r\n        wallet = address(new Vault(msg.sender, _owner, _unlockDate));\r\n        \r\n        // Add wallet to sender's wallets.\r\n        wallets[msg.sender].push(wallet);\r\n\r\n        // If owner is the same as sender then add wallet to sender's wallets too.\r\n        if(msg.sender != _owner){\r\n            wallets[_owner].push(wallet);\r\n        }\r\n\r\n        // Send ether from this transaction to the created contract.\r\n        payable(wallet).transfer(msg.value);\r\n\r\n        // Emit event.\r\n        emit Created(wallet, msg.sender, _owner, block.timestamp, _unlockDate, msg.value);\r\n    }\r\n\r\n    // Prevents accidental sending of ether to the factory\r\n    fallback () external {\r\n        revert();\r\n    }\r\n\r\n    event Created(address wallet, address from, address to, uint256 createdAt, uint256 unlockDate, uint256 amount);\r\n}",
  "sourcePath": "E:\\Development\\_Personal\\Blockchain\\ico-steinnegen-coin\\contracts\\VaultFactory.sol",
  "compiler": {
    "name": "solc",
    "version": "0.8.11+commit.d7f03943.Emscripten.clang"
  },
  "schemaVersion": "3.4.4",
  "updatedAt": "2022-03-07T12:47:50.387Z",
  "networkType": "ethereum",
  "devdoc": {
    "kind": "dev",
    "methods": {},
    "version": 1
  },
  "userdoc": {
    "kind": "user",
    "methods": {},
    "version": 1
  }
}